{
  "contractName": "PenroseToken",
  "abi": [
    {
      "inputs": [
        {
          "internalType": "uint256",
          "name": "initialSupply",
          "type": "uint256"
        }
      ],
      "stateMutability": "nonpayable",
      "type": "constructor"
    },
    {
      "anonymous": false,
      "inputs": [
        {
          "indexed": true,
          "internalType": "address",
          "name": "owner",
          "type": "address"
        },
        {
          "indexed": true,
          "internalType": "address",
          "name": "spender",
          "type": "address"
        },
        {
          "indexed": false,
          "internalType": "uint256",
          "name": "value",
          "type": "uint256"
        }
      ],
      "name": "Approval",
      "type": "event"
    },
    {
      "anonymous": false,
      "inputs": [
        {
          "indexed": true,
          "internalType": "address",
          "name": "from",
          "type": "address"
        },
        {
          "indexed": true,
          "internalType": "address",
          "name": "to",
          "type": "address"
        },
        {
          "indexed": false,
          "internalType": "uint256",
          "name": "value",
          "type": "uint256"
        }
      ],
      "name": "Transfer",
      "type": "event"
    },
    {
      "anonymous": false,
      "inputs": [
        {
          "indexed": false,
          "internalType": "address",
          "name": "user",
          "type": "address"
        },
        {
          "indexed": false,
          "internalType": "uint256",
          "name": "amount",
          "type": "uint256"
        }
      ],
      "name": "ValueReceived",
      "type": "event"
    },
    {
      "inputs": [
        {
          "internalType": "address",
          "name": "owner",
          "type": "address"
        },
        {
          "internalType": "address",
          "name": "spender",
          "type": "address"
        }
      ],
      "name": "allowance",
      "outputs": [
        {
          "internalType": "uint256",
          "name": "",
          "type": "uint256"
        }
      ],
      "stateMutability": "view",
      "type": "function",
      "constant": true
    },
    {
      "inputs": [
        {
          "internalType": "address",
          "name": "spender",
          "type": "address"
        },
        {
          "internalType": "uint256",
          "name": "amount",
          "type": "uint256"
        }
      ],
      "name": "approve",
      "outputs": [
        {
          "internalType": "bool",
          "name": "",
          "type": "bool"
        }
      ],
      "stateMutability": "nonpayable",
      "type": "function"
    },
    {
      "inputs": [
        {
          "internalType": "address",
          "name": "account",
          "type": "address"
        }
      ],
      "name": "balanceOf",
      "outputs": [
        {
          "internalType": "uint256",
          "name": "",
          "type": "uint256"
        }
      ],
      "stateMutability": "view",
      "type": "function",
      "constant": true
    },
    {
      "inputs": [],
      "name": "decimals",
      "outputs": [
        {
          "internalType": "uint8",
          "name": "",
          "type": "uint8"
        }
      ],
      "stateMutability": "view",
      "type": "function",
      "constant": true
    },
    {
      "inputs": [
        {
          "internalType": "address",
          "name": "spender",
          "type": "address"
        },
        {
          "internalType": "uint256",
          "name": "subtractedValue",
          "type": "uint256"
        }
      ],
      "name": "decreaseAllowance",
      "outputs": [
        {
          "internalType": "bool",
          "name": "",
          "type": "bool"
        }
      ],
      "stateMutability": "nonpayable",
      "type": "function"
    },
    {
      "inputs": [
        {
          "internalType": "address",
          "name": "spender",
          "type": "address"
        },
        {
          "internalType": "uint256",
          "name": "addedValue",
          "type": "uint256"
        }
      ],
      "name": "increaseAllowance",
      "outputs": [
        {
          "internalType": "bool",
          "name": "",
          "type": "bool"
        }
      ],
      "stateMutability": "nonpayable",
      "type": "function"
    },
    {
      "inputs": [],
      "name": "latestWinner",
      "outputs": [
        {
          "internalType": "address",
          "name": "",
          "type": "address"
        }
      ],
      "stateMutability": "view",
      "type": "function",
      "constant": true
    },
    {
      "inputs": [],
      "name": "minter",
      "outputs": [
        {
          "internalType": "address",
          "name": "",
          "type": "address"
        }
      ],
      "stateMutability": "view",
      "type": "function",
      "constant": true
    },
    {
      "inputs": [],
      "name": "name",
      "outputs": [
        {
          "internalType": "string",
          "name": "",
          "type": "string"
        }
      ],
      "stateMutability": "view",
      "type": "function",
      "constant": true
    },
    {
      "inputs": [],
      "name": "symbol",
      "outputs": [
        {
          "internalType": "string",
          "name": "",
          "type": "string"
        }
      ],
      "stateMutability": "view",
      "type": "function",
      "constant": true
    },
    {
      "inputs": [],
      "name": "totalSupply",
      "outputs": [
        {
          "internalType": "uint256",
          "name": "",
          "type": "uint256"
        }
      ],
      "stateMutability": "view",
      "type": "function",
      "constant": true
    },
    {
      "inputs": [
        {
          "internalType": "address",
          "name": "recipient",
          "type": "address"
        },
        {
          "internalType": "uint256",
          "name": "amount",
          "type": "uint256"
        }
      ],
      "name": "transfer",
      "outputs": [
        {
          "internalType": "bool",
          "name": "",
          "type": "bool"
        }
      ],
      "stateMutability": "nonpayable",
      "type": "function"
    },
    {
      "inputs": [
        {
          "internalType": "address",
          "name": "sender",
          "type": "address"
        },
        {
          "internalType": "address",
          "name": "recipient",
          "type": "address"
        },
        {
          "internalType": "uint256",
          "name": "amount",
          "type": "uint256"
        }
      ],
      "name": "transferFrom",
      "outputs": [
        {
          "internalType": "bool",
          "name": "",
          "type": "bool"
        }
      ],
      "stateMutability": "nonpayable",
      "type": "function"
    },
    {
      "inputs": [],
      "name": "getSupply",
      "outputs": [
        {
          "internalType": "uint256",
          "name": "",
          "type": "uint256"
        }
      ],
      "stateMutability": "view",
      "type": "function",
      "constant": true
    },
    {
      "inputs": [
        {
          "internalType": "address",
          "name": "_address",
          "type": "address"
        }
      ],
      "name": "getERCBalance",
      "outputs": [
        {
          "internalType": "uint256",
          "name": "",
          "type": "uint256"
        }
      ],
      "stateMutability": "view",
      "type": "function",
      "constant": true
    },
    {
      "inputs": [
        {
          "internalType": "uint256",
          "name": "numberTokens",
          "type": "uint256"
        },
        {
          "internalType": "uint256",
          "name": "tokenPrice",
          "type": "uint256"
        }
      ],
      "name": "buyToken",
      "outputs": [],
      "stateMutability": "payable",
      "type": "function",
      "payable": true
    }
  ],
  "bytecode": "0x60806040523480156200001157600080fd5b5060405162001d0038038062001d0083398181016040528101906200003791906200039d565b6040518060400160405280600781526020017f50656e726f7365000000000000000000000000000000000000000000000000008152506040518060400160405280600381526020017f504e5200000000000000000000000000000000000000000000000000000000008152508160039080519060200190620000bb929190620002d6565b508060049080519060200190620000d4929190620002d6565b50505033600560006101000a81548173ffffffffffffffffffffffffffffffffffffffff021916908373ffffffffffffffffffffffffffffffffffffffff1602179055506200014c600560009054906101000a900473ffffffffffffffffffffffffffffffffffffffff16826200015360201b60201c565b5062000581565b600073ffffffffffffffffffffffffffffffffffffffff168273ffffffffffffffffffffffffffffffffffffffff161415620001c6576040517f08c379a0000000000000000000000000000000000000000000000000000000008152600401620001bd906200041c565b60405180910390fd5b620001da60008383620002cc60201b60201c565b8060026000828254620001ee91906200046c565b92505081905550806000808473ffffffffffffffffffffffffffffffffffffffff1673ffffffffffffffffffffffffffffffffffffffff16815260200190815260200160002060008282546200024591906200046c565b925050819055508173ffffffffffffffffffffffffffffffffffffffff16600073ffffffffffffffffffffffffffffffffffffffff167fddf252ad1be2c89b69c2b068fc378daa952ba7f163c4a11628f55a4df523b3ef83604051620002ac91906200043e565b60405180910390a3620002c860008383620002d160201b60201c565b5050565b505050565b505050565b828054620002e490620004d3565b90600052602060002090601f01602090048101928262000308576000855562000354565b82601f106200032357805160ff191683800117855562000354565b8280016001018555821562000354579182015b828111156200035357825182559160200191906001019062000336565b5b50905062000363919062000367565b5090565b5b808211156200038257600081600090555060010162000368565b5090565b600081519050620003978162000567565b92915050565b600060208284031215620003b057600080fd5b6000620003c08482850162000386565b91505092915050565b6000620003d8601f836200045b565b91507f45524332303a206d696e7420746f20746865207a65726f2061646472657373006000830152602082019050919050565b6200041681620004c9565b82525050565b600060208201905081810360008301526200043781620003c9565b9050919050565b60006020820190506200045560008301846200040b565b92915050565b600082825260208201905092915050565b60006200047982620004c9565b91506200048683620004c9565b9250827fffffffffffffffffffffffffffffffffffffffffffffffffffffffffffffffff03821115620004be57620004bd62000509565b5b828201905092915050565b6000819050919050565b60006002820490506001821680620004ec57607f821691505b6020821081141562000503576200050262000538565b5b50919050565b7f4e487b7100000000000000000000000000000000000000000000000000000000600052601160045260246000fd5b7f4e487b7100000000000000000000000000000000000000000000000000000000600052602260045260246000fd5b6200057281620004c9565b81146200057e57600080fd5b50565b61176f80620005916000396000f3fe6080604052600436106100f35760003560e01c8063395093511161008a57806395d89b411161005957806395d89b4114610347578063a457c2d714610372578063a9059cbb146103af578063dd62ed3e146103ec576100f3565b806339509351146102655780636c9c2faf146102a257806370a08231146102cd5780638fbb38131461030a576100f3565b8063095ea7b3116100c6578063095ea7b31461019557806318160ddd146101d257806323b872dd146101fd578063313ce5671461023a576100f3565b8063057466ea146100f857806306ef53e01461011457806306fdde031461013f578063075461721461016a575b600080fd5b610112600480360381019061010d9190610fa4565b610429565b005b34801561012057600080fd5b506101296104bd565b604051610136919061135f565b60405180910390f35b34801561014b57600080fd5b506101546104e3565b60405161016191906113be565b60405180910390f35b34801561017657600080fd5b5061017f610575565b60405161018c919061135f565b60405180910390f35b3480156101a157600080fd5b506101bc60048036038101906101b79190610f68565b61059b565b6040516101c991906113a3565b60405180910390f35b3480156101de57600080fd5b506101e76105b9565b6040516101f491906114e0565b60405180910390f35b34801561020957600080fd5b50610224600480360381019061021f9190610f19565b6105c3565b60405161023191906113a3565b60405180910390f35b34801561024657600080fd5b5061024f6106bb565b60405161025c91906114fb565b60405180910390f35b34801561027157600080fd5b5061028c60048036038101906102879190610f68565b6106c4565b60405161029991906113a3565b60405180910390f35b3480156102ae57600080fd5b506102b7610770565b6040516102c491906114e0565b60405180910390f35b3480156102d957600080fd5b506102f460048036038101906102ef9190610eb4565b61077f565b60405161030191906114e0565b60405180910390f35b34801561031657600080fd5b50610331600480360381019061032c9190610eb4565b6107c7565b60405161033e91906114e0565b60405180910390f35b34801561035357600080fd5b5061035c6107d9565b60405161036991906113be565b60405180910390f35b34801561037e57600080fd5b5061039960048036038101906103949190610f68565b61086b565b6040516103a691906113a3565b60405180910390f35b3480156103bb57600080fd5b506103d660048036038101906103d19190610f68565b610956565b6040516103e391906113a3565b60405180910390f35b3480156103f857600080fd5b50610413600480360381019061040e9190610edd565b610974565b60405161042091906114e0565b60405180910390f35b80826104359190611588565b3411610476576040517f08c379a000000000000000000000000000000000000000000000000000000000815260040161046d90611460565b60405180910390fd5b61048033836109fb565b7f7e71433ddf847725166244795048ecf3e3f9f35628254ecbf73605666423349333346040516104b192919061137a565b60405180910390a15050565b600660009054906101000a900473ffffffffffffffffffffffffffffffffffffffff1681565b6060600380546104f29061166a565b80601f016020809104026020016040519081016040528092919081815260200182805461051e9061166a565b801561056b5780601f106105405761010080835404028352916020019161056b565b820191906000526020600020905b81548152906001019060200180831161054e57829003601f168201915b5050505050905090565b600560009054906101000a900473ffffffffffffffffffffffffffffffffffffffff1681565b60006105af6105a8610a2c565b8484610a34565b6001905092915050565b6000600254905090565b60006105d0848484610bff565b6000600160008673ffffffffffffffffffffffffffffffffffffffff1673ffffffffffffffffffffffffffffffffffffffff168152602001908152602001600020600061061b610a2c565b73ffffffffffffffffffffffffffffffffffffffff1673ffffffffffffffffffffffffffffffffffffffff1681526020019081526020016000205490508281101561069b576040517f08c379a000000000000000000000000000000000000000000000000000000000815260040161069290611440565b60405180910390fd5b6106af856106a7610a2c565b858403610a34565b60019150509392505050565b60006012905090565b60006107666106d1610a2c565b8484600160006106df610a2c565b73ffffffffffffffffffffffffffffffffffffffff1673ffffffffffffffffffffffffffffffffffffffff16815260200190815260200160002060008873ffffffffffffffffffffffffffffffffffffffff1673ffffffffffffffffffffffffffffffffffffffff168152602001908152602001600020546107619190611532565b610a34565b6001905092915050565b600061077a6105b9565b905090565b60008060008373ffffffffffffffffffffffffffffffffffffffff1673ffffffffffffffffffffffffffffffffffffffff168152602001908152602001600020549050919050565b60006107d28261077f565b9050919050565b6060600480546107e89061166a565b80601f01602080910402602001604051908101604052809291908181526020018280546108149061166a565b80156108615780601f1061083657610100808354040283529160200191610861565b820191906000526020600020905b81548152906001019060200180831161084457829003601f168201915b5050505050905090565b6000806001600061087a610a2c565b73ffffffffffffffffffffffffffffffffffffffff1673ffffffffffffffffffffffffffffffffffffffff16815260200190815260200160002060008573ffffffffffffffffffffffffffffffffffffffff1673ffffffffffffffffffffffffffffffffffffffff16815260200190815260200160002054905082811015610937576040517f08c379a000000000000000000000000000000000000000000000000000000000815260040161092e906114c0565b60405180910390fd5b61094b610942610a2c565b85858403610a34565b600191505092915050565b600061096a610963610a2c565b8484610bff565b6001905092915050565b6000600160008473ffffffffffffffffffffffffffffffffffffffff1673ffffffffffffffffffffffffffffffffffffffff16815260200190815260200160002060008373ffffffffffffffffffffffffffffffffffffffff1673ffffffffffffffffffffffffffffffffffffffff16815260200190815260200160002054905092915050565b610a28600560009054906101000a900473ffffffffffffffffffffffffffffffffffffffff168383610bff565b5050565b600033905090565b600073ffffffffffffffffffffffffffffffffffffffff168373ffffffffffffffffffffffffffffffffffffffff161415610aa4576040517f08c379a0000000000000000000000000000000000000000000000000000000008152600401610a9b906114a0565b60405180910390fd5b600073ffffffffffffffffffffffffffffffffffffffff168273ffffffffffffffffffffffffffffffffffffffff161415610b14576040517f08c379a0000000000000000000000000000000000000000000000000000000008152600401610b0b90611400565b60405180910390fd5b80600160008573ffffffffffffffffffffffffffffffffffffffff1673ffffffffffffffffffffffffffffffffffffffff16815260200190815260200160002060008473ffffffffffffffffffffffffffffffffffffffff1673ffffffffffffffffffffffffffffffffffffffff168152602001908152602001600020819055508173ffffffffffffffffffffffffffffffffffffffff168373ffffffffffffffffffffffffffffffffffffffff167f8c5be1e5ebec7d5bd14f71427d1e84f3dd0314c0f7b2291e5b200ac8c7c3b92583604051610bf291906114e0565b60405180910390a3505050565b600073ffffffffffffffffffffffffffffffffffffffff168373ffffffffffffffffffffffffffffffffffffffff161415610c6f576040517f08c379a0000000000000000000000000000000000000000000000000000000008152600401610c6690611480565b60405180910390fd5b600073ffffffffffffffffffffffffffffffffffffffff168273ffffffffffffffffffffffffffffffffffffffff161415610cdf576040517f08c379a0000000000000000000000000000000000000000000000000000000008152600401610cd6906113e0565b60405180910390fd5b610cea838383610e80565b60008060008573ffffffffffffffffffffffffffffffffffffffff1673ffffffffffffffffffffffffffffffffffffffff16815260200190815260200160002054905081811015610d70576040517f08c379a0000000000000000000000000000000000000000000000000000000008152600401610d6790611420565b60405180910390fd5b8181036000808673ffffffffffffffffffffffffffffffffffffffff1673ffffffffffffffffffffffffffffffffffffffff16815260200190815260200160002081905550816000808573ffffffffffffffffffffffffffffffffffffffff1673ffffffffffffffffffffffffffffffffffffffff1681526020019081526020016000206000828254610e039190611532565b925050819055508273ffffffffffffffffffffffffffffffffffffffff168473ffffffffffffffffffffffffffffffffffffffff167fddf252ad1be2c89b69c2b068fc378daa952ba7f163c4a11628f55a4df523b3ef84604051610e6791906114e0565b60405180910390a3610e7a848484610e85565b50505050565b505050565b505050565b600081359050610e998161170b565b92915050565b600081359050610eae81611722565b92915050565b600060208284031215610ec657600080fd5b6000610ed484828501610e8a565b91505092915050565b60008060408385031215610ef057600080fd5b6000610efe85828601610e8a565b9250506020610f0f85828601610e8a565b9150509250929050565b600080600060608486031215610f2e57600080fd5b6000610f3c86828701610e8a565b9350506020610f4d86828701610e8a565b9250506040610f5e86828701610e9f565b9150509250925092565b60008060408385031215610f7b57600080fd5b6000610f8985828601610e8a565b9250506020610f9a85828601610e9f565b9150509250929050565b60008060408385031215610fb757600080fd5b6000610fc585828601610e9f565b9250506020610fd685828601610e9f565b9150509250929050565b610fe9816115e2565b82525050565b610ff8816115f4565b82525050565b600061100982611516565b6110138185611521565b9350611023818560208601611637565b61102c816116fa565b840191505092915050565b6000611044602383611521565b91507f45524332303a207472616e7366657220746f20746865207a65726f206164647260008301527f65737300000000000000000000000000000000000000000000000000000000006020830152604082019050919050565b60006110aa602283611521565b91507f45524332303a20617070726f766520746f20746865207a65726f20616464726560008301527f73730000000000000000000000000000000000000000000000000000000000006020830152604082019050919050565b6000611110602683611521565b91507f45524332303a207472616e7366657220616d6f756e742065786365656473206260008301527f616c616e636500000000000000000000000000000000000000000000000000006020830152604082019050919050565b6000611176602883611521565b91507f45524332303a207472616e7366657220616d6f756e742065786365656473206160008301527f6c6c6f77616e63650000000000000000000000000000000000000000000000006020830152604082019050919050565b60006111dc601b83611521565b91507f446964206e6f74207472616e7366657220656e6f7567682045544800000000006000830152602082019050919050565b600061121c602583611521565b91507f45524332303a207472616e736665722066726f6d20746865207a65726f20616460008301527f64726573730000000000000000000000000000000000000000000000000000006020830152604082019050919050565b6000611282602483611521565b91507f45524332303a20617070726f76652066726f6d20746865207a65726f2061646460008301527f72657373000000000000000000000000000000000000000000000000000000006020830152604082019050919050565b60006112e8602583611521565b91507f45524332303a2064656372656173656420616c6c6f77616e63652062656c6f7760008301527f207a65726f0000000000000000000000000000000000000000000000000000006020830152604082019050919050565b61134a81611620565b82525050565b6113598161162a565b82525050565b60006020820190506113746000830184610fe0565b92915050565b600060408201905061138f6000830185610fe0565b61139c6020830184611341565b9392505050565b60006020820190506113b86000830184610fef565b92915050565b600060208201905081810360008301526113d88184610ffe565b905092915050565b600060208201905081810360008301526113f981611037565b9050919050565b600060208201905081810360008301526114198161109d565b9050919050565b6000602082019050818103600083015261143981611103565b9050919050565b6000602082019050818103600083015261145981611169565b9050919050565b60006020820190508181036000830152611479816111cf565b9050919050565b600060208201905081810360008301526114998161120f565b9050919050565b600060208201905081810360008301526114b981611275565b9050919050565b600060208201905081810360008301526114d9816112db565b9050919050565b60006020820190506114f56000830184611341565b92915050565b60006020820190506115106000830184611350565b92915050565b600081519050919050565b600082825260208201905092915050565b600061153d82611620565b915061154883611620565b9250827fffffffffffffffffffffffffffffffffffffffffffffffffffffffffffffffff0382111561157d5761157c61169c565b5b828201905092915050565b600061159382611620565b915061159e83611620565b9250817fffffffffffffffffffffffffffffffffffffffffffffffffffffffffffffffff04831182151516156115d7576115d661169c565b5b828202905092915050565b60006115ed82611600565b9050919050565b60008115159050919050565b600073ffffffffffffffffffffffffffffffffffffffff82169050919050565b6000819050919050565b600060ff82169050919050565b60005b8381101561165557808201518184015260208101905061163a565b83811115611664576000848401525b50505050565b6000600282049050600182168061168257607f821691505b60208210811415611696576116956116cb565b5b50919050565b7f4e487b7100000000000000000000000000000000000000000000000000000000600052601160045260246000fd5b7f4e487b7100000000000000000000000000000000000000000000000000000000600052602260045260246000fd5b6000601f19601f8301169050919050565b611714816115e2565b811461171f57600080fd5b50565b61172b81611620565b811461173657600080fd5b5056fea264697066735822122016dab889942b919cb8d1976a8ddf0db1e510e7e096a89dd0164c95a3287c9d2164736f6c63430008000033",
  "immutableReferences": {},
  "source": "pragma solidity ^0.8.0;\nimport \"@openzeppelin/contracts/token/ERC20/ERC20.sol\";\n\ncontract PenroseToken is ERC20 {\n\n    event ValueReceived(address user, uint amount);\n    address public minter;\n    address public latestWinner;\n\n    constructor(uint initialSupply) ERC20(\"Penrose\", \"PNR\") public {\n        minter = msg.sender;\n        _mint(minter, initialSupply);\n\n    }\n\n    function getSupply() public view returns(uint) {\n        return super.totalSupply();\n    }\n\n    function getERCBalance(address _address) public view returns(uint) {\n        return super.balanceOf(_address);\n    }\n\n    // buyToken should require e.g. numberTokens per ETH or msg.value\n\n    function buyToken(uint numberTokens, uint tokenPrice) payable public {\n        require(msg.value > numberTokens*tokenPrice, \"Did not transfer enough ETH\");\n        //set allowance of msg.sender to zero first and then approve the numberofTokens\n        // NEED TO CHANGE TO INCORPORSTE NON UNITY PRICES\n//        _approve(msg.sender, 0);\n//        _approve(msg.sender, msg.value);\n//        super.transferFrom(minter, msg.sender, numberTokens);\n        sendTokenFromMinter(msg.sender, numberTokens);\n        emit ValueReceived(msg.sender, msg.value);\n    }\n\n    function sendTokenFromMinter(address receiver, uint numberTokens) internal {\n        super._transfer(minter, receiver, numberTokens);\n    }\n\n\n    // pickWinner should only be used by the minter i.e. contract creator and should randomly pick a winner\n    // from all the token holders\n\n//    function pickWinner() public returns(address) {\n//        require(msg.sender == minter);\n//         latestWinnerIndex = random();\n//        latestWinner =\n//         return latestWinner;\n//    }\n\n//    function random(uint numTokenHolders) private view returns (uint8) {\n//        return uint8(uint256(keccak256(block.timestamp, block.difficulty))%numTokenHolders);\n//    }\n\n}\n\n\n//TODO and useful commands\n//instance2.totalSupply().then(result => result.toString()) to convert BN to readable number\n//instance2.balanceOf(payerAddress) to get balance of payerAddress\n//web3.eth.getBalance(instance2.address) to get balance of contractAddress\n//const inst = await PenroseToken.new(123)\n//instToken.transfer(receiverAddress, 99)\n\n//     const payment1 = await instToken.buyToken(1, {to: web3.utils.toChecksumAddress(instToken.address), from: web3.utils.toChecksumAddress('0x6bce403cd96ee6118ec49892c4d8a179727b5816'), value: web3.utils.toWei(\"1\", \"ether\")})\n\n//truffle exec scripts/query.js --network development",
  "sourcePath": "/Users/oliver.flynn/penrose-lotto/contracts/PenroseToken.sol",
  "compiler": {
    "name": "solc",
    "version": "0.8.0+commit.c7dfd78e.Emscripten.clang"
  },
  "schemaVersion": "3.4.2",
  "updatedAt": "2021-11-22T21:38:30.452Z",
  "networkType": "ethereum",
  "devdoc": {
    "kind": "dev",
    "methods": {
      "allowance(address,address)": {
        "details": "See {IERC20-allowance}."
      },
      "approve(address,uint256)": {
        "details": "See {IERC20-approve}. Requirements: - `spender` cannot be the zero address."
      },
      "balanceOf(address)": {
        "details": "See {IERC20-balanceOf}."
      },
      "decimals()": {
        "details": "Returns the number of decimals used to get its user representation. For example, if `decimals` equals `2`, a balance of `505` tokens should be displayed to a user as `5,05` (`505 / 10 ** 2`). Tokens usually opt for a value of 18, imitating the relationship between Ether and Wei. This is the value {ERC20} uses, unless this function is overridden; NOTE: This information is only used for _display_ purposes: it in no way affects any of the arithmetic of the contract, including {IERC20-balanceOf} and {IERC20-transfer}."
      },
      "decreaseAllowance(address,uint256)": {
        "details": "Atomically decreases the allowance granted to `spender` by the caller. This is an alternative to {approve} that can be used as a mitigation for problems described in {IERC20-approve}. Emits an {Approval} event indicating the updated allowance. Requirements: - `spender` cannot be the zero address. - `spender` must have allowance for the caller of at least `subtractedValue`."
      },
      "increaseAllowance(address,uint256)": {
        "details": "Atomically increases the allowance granted to `spender` by the caller. This is an alternative to {approve} that can be used as a mitigation for problems described in {IERC20-approve}. Emits an {Approval} event indicating the updated allowance. Requirements: - `spender` cannot be the zero address."
      },
      "name()": {
        "details": "Returns the name of the token."
      },
      "symbol()": {
        "details": "Returns the symbol of the token, usually a shorter version of the name."
      },
      "totalSupply()": {
        "details": "See {IERC20-totalSupply}."
      },
      "transfer(address,uint256)": {
        "details": "See {IERC20-transfer}. Requirements: - `recipient` cannot be the zero address. - the caller must have a balance of at least `amount`."
      },
      "transferFrom(address,address,uint256)": {
        "details": "See {IERC20-transferFrom}. Emits an {Approval} event indicating the updated allowance. This is not required by the EIP. See the note at the beginning of {ERC20}. Requirements: - `sender` and `recipient` cannot be the zero address. - `sender` must have a balance of at least `amount`. - the caller must have allowance for ``sender``'s tokens of at least `amount`."
      }
    },
    "version": 1
  },
  "userdoc": {
    "kind": "user",
    "methods": {},
    "version": 1
  }
}