{
  "contractName": "PenroseToken",
  "abi": [
    {
      "inputs": [
        {
          "internalType": "uint256",
          "name": "initialSupply",
          "type": "uint256"
        }
      ],
      "stateMutability": "nonpayable",
      "type": "constructor"
    },
    {
      "anonymous": false,
      "inputs": [
        {
          "indexed": true,
          "internalType": "address",
          "name": "owner",
          "type": "address"
        },
        {
          "indexed": true,
          "internalType": "address",
          "name": "spender",
          "type": "address"
        },
        {
          "indexed": false,
          "internalType": "uint256",
          "name": "value",
          "type": "uint256"
        }
      ],
      "name": "Approval",
      "type": "event"
    },
    {
      "anonymous": false,
      "inputs": [
        {
          "indexed": true,
          "internalType": "address",
          "name": "from",
          "type": "address"
        },
        {
          "indexed": true,
          "internalType": "address",
          "name": "to",
          "type": "address"
        },
        {
          "indexed": false,
          "internalType": "uint256",
          "name": "value",
          "type": "uint256"
        }
      ],
      "name": "Transfer",
      "type": "event"
    },
    {
      "anonymous": false,
      "inputs": [
        {
          "indexed": false,
          "internalType": "address",
          "name": "user",
          "type": "address"
        },
        {
          "indexed": false,
          "internalType": "uint256",
          "name": "amount",
          "type": "uint256"
        }
      ],
      "name": "ValueReceived",
      "type": "event"
    },
    {
      "inputs": [
        {
          "internalType": "address",
          "name": "owner",
          "type": "address"
        },
        {
          "internalType": "address",
          "name": "spender",
          "type": "address"
        }
      ],
      "name": "allowance",
      "outputs": [
        {
          "internalType": "uint256",
          "name": "",
          "type": "uint256"
        }
      ],
      "stateMutability": "view",
      "type": "function",
      "constant": true
    },
    {
      "inputs": [
        {
          "internalType": "address",
          "name": "spender",
          "type": "address"
        },
        {
          "internalType": "uint256",
          "name": "amount",
          "type": "uint256"
        }
      ],
      "name": "approve",
      "outputs": [
        {
          "internalType": "bool",
          "name": "",
          "type": "bool"
        }
      ],
      "stateMutability": "nonpayable",
      "type": "function"
    },
    {
      "inputs": [
        {
          "internalType": "address",
          "name": "account",
          "type": "address"
        }
      ],
      "name": "balanceOf",
      "outputs": [
        {
          "internalType": "uint256",
          "name": "",
          "type": "uint256"
        }
      ],
      "stateMutability": "view",
      "type": "function",
      "constant": true
    },
    {
      "inputs": [],
      "name": "decimals",
      "outputs": [
        {
          "internalType": "uint8",
          "name": "",
          "type": "uint8"
        }
      ],
      "stateMutability": "view",
      "type": "function",
      "constant": true
    },
    {
      "inputs": [
        {
          "internalType": "address",
          "name": "spender",
          "type": "address"
        },
        {
          "internalType": "uint256",
          "name": "subtractedValue",
          "type": "uint256"
        }
      ],
      "name": "decreaseAllowance",
      "outputs": [
        {
          "internalType": "bool",
          "name": "",
          "type": "bool"
        }
      ],
      "stateMutability": "nonpayable",
      "type": "function"
    },
    {
      "inputs": [
        {
          "internalType": "address",
          "name": "spender",
          "type": "address"
        },
        {
          "internalType": "uint256",
          "name": "addedValue",
          "type": "uint256"
        }
      ],
      "name": "increaseAllowance",
      "outputs": [
        {
          "internalType": "bool",
          "name": "",
          "type": "bool"
        }
      ],
      "stateMutability": "nonpayable",
      "type": "function"
    },
    {
      "inputs": [],
      "name": "minter",
      "outputs": [
        {
          "internalType": "address",
          "name": "",
          "type": "address"
        }
      ],
      "stateMutability": "view",
      "type": "function",
      "constant": true
    },
    {
      "inputs": [],
      "name": "name",
      "outputs": [
        {
          "internalType": "string",
          "name": "",
          "type": "string"
        }
      ],
      "stateMutability": "view",
      "type": "function",
      "constant": true
    },
    {
      "inputs": [],
      "name": "symbol",
      "outputs": [
        {
          "internalType": "string",
          "name": "",
          "type": "string"
        }
      ],
      "stateMutability": "view",
      "type": "function",
      "constant": true
    },
    {
      "inputs": [],
      "name": "testString",
      "outputs": [
        {
          "internalType": "string",
          "name": "",
          "type": "string"
        }
      ],
      "stateMutability": "view",
      "type": "function",
      "constant": true
    },
    {
      "inputs": [],
      "name": "totalSupply",
      "outputs": [
        {
          "internalType": "uint256",
          "name": "",
          "type": "uint256"
        }
      ],
      "stateMutability": "view",
      "type": "function",
      "constant": true
    },
    {
      "inputs": [
        {
          "internalType": "address",
          "name": "recipient",
          "type": "address"
        },
        {
          "internalType": "uint256",
          "name": "amount",
          "type": "uint256"
        }
      ],
      "name": "transfer",
      "outputs": [
        {
          "internalType": "bool",
          "name": "",
          "type": "bool"
        }
      ],
      "stateMutability": "nonpayable",
      "type": "function"
    },
    {
      "inputs": [
        {
          "internalType": "address",
          "name": "sender",
          "type": "address"
        },
        {
          "internalType": "address",
          "name": "recipient",
          "type": "address"
        },
        {
          "internalType": "uint256",
          "name": "amount",
          "type": "uint256"
        }
      ],
      "name": "transferFrom",
      "outputs": [
        {
          "internalType": "bool",
          "name": "",
          "type": "bool"
        }
      ],
      "stateMutability": "nonpayable",
      "type": "function"
    },
    {
      "inputs": [],
      "name": "getSupply",
      "outputs": [
        {
          "internalType": "uint256",
          "name": "",
          "type": "uint256"
        }
      ],
      "stateMutability": "view",
      "type": "function",
      "constant": true
    },
    {
      "inputs": [
        {
          "internalType": "address",
          "name": "_address",
          "type": "address"
        }
      ],
      "name": "getERCBalance",
      "outputs": [
        {
          "internalType": "uint256",
          "name": "",
          "type": "uint256"
        }
      ],
      "stateMutability": "view",
      "type": "function",
      "constant": true
    },
    {
      "inputs": [
        {
          "internalType": "uint256",
          "name": "numberTokens",
          "type": "uint256"
        }
      ],
      "name": "buyToken",
      "outputs": [],
      "stateMutability": "payable",
      "type": "function",
      "payable": true
    }
  ],
  "bytecode": "0x60806040526040518060400160405280601081526020017f486f7065207468697320776f726b73210000000000000000000000000000000081525060069080519060200190620000519291906200032a565b503480156200005f57600080fd5b5060405162001e1638038062001e168339818101604052810190620000859190620003f1565b6040518060400160405280600781526020017f50656e726f7365000000000000000000000000000000000000000000000000008152506040518060400160405280600381526020017f504e5200000000000000000000000000000000000000000000000000000000008152508160039080519060200190620001099291906200032a565b508060049080519060200190620001229291906200032a565b50505062000156336200013a6200019e60201b60201c565b60ff16836200014a919062000578565b620001a760201b60201c565b33600560006101000a81548173ffffffffffffffffffffffffffffffffffffffff021916908373ffffffffffffffffffffffffffffffffffffffff160217905550506200077a565b60006012905090565b600073ffffffffffffffffffffffffffffffffffffffff168273ffffffffffffffffffffffffffffffffffffffff1614156200021a576040517f08c379a0000000000000000000000000000000000000000000000000000000008152600401620002119062000470565b60405180910390fd5b6200022e600083836200032060201b60201c565b8060026000828254620002429190620004c0565b92505081905550806000808473ffffffffffffffffffffffffffffffffffffffff1673ffffffffffffffffffffffffffffffffffffffff1681526020019081526020016000206000828254620002999190620004c0565b925050819055508173ffffffffffffffffffffffffffffffffffffffff16600073ffffffffffffffffffffffffffffffffffffffff167fddf252ad1be2c89b69c2b068fc378daa952ba7f163c4a11628f55a4df523b3ef8360405162000300919062000492565b60405180910390a36200031c600083836200032560201b60201c565b5050565b505050565b505050565b8280546200033890620006bf565b90600052602060002090601f0160209004810192826200035c5760008555620003a8565b82601f106200037757805160ff1916838001178555620003a8565b82800160010185558215620003a8579182015b82811115620003a75782518255916020019190600101906200038a565b5b509050620003b79190620003bb565b5090565b5b80821115620003d6576000816000905550600101620003bc565b5090565b600081519050620003eb8162000760565b92915050565b6000602082840312156200040457600080fd5b60006200041484828501620003da565b91505092915050565b60006200042c601f83620004af565b91507f45524332303a206d696e7420746f20746865207a65726f2061646472657373006000830152602082019050919050565b6200046a81620006b5565b82525050565b600060208201905081810360008301526200048b816200041d565b9050919050565b6000602082019050620004a960008301846200045f565b92915050565b600082825260208201905092915050565b6000620004cd82620006b5565b9150620004da83620006b5565b9250827fffffffffffffffffffffffffffffffffffffffffffffffffffffffffffffffff03821115620005125762000511620006f5565b5b828201905092915050565b6000808291508390505b60018511156200056f57808604811115620005475762000546620006f5565b5b6001851615620005575780820291505b8081029050620005678562000753565b945062000527565b94509492505050565b60006200058582620006b5565b91506200059283620006b5565b9250620005c17fffffffffffffffffffffffffffffffffffffffffffffffffffffffffffffffff8484620005c9565b905092915050565b600082620005db5760019050620006ae565b81620005eb5760009050620006ae565b81600181146200060457600281146200060f5762000645565b6001915050620006ae565b60ff841115620006245762000623620006f5565b5b8360020a9150848211156200063e576200063d620006f5565b5b50620006ae565b5060208310610133831016604e8410600b84101617156200067f5782820a905083811115620006795762000678620006f5565b5b620006ae565b6200068e84848460016200051d565b92509050818404811115620006a857620006a7620006f5565b5b81810290505b9392505050565b6000819050919050565b60006002820490506001821680620006d857607f821691505b60208210811415620006ef57620006ee62000724565b5b50919050565b7f4e487b7100000000000000000000000000000000000000000000000000000000600052601160045260246000fd5b7f4e487b7100000000000000000000000000000000000000000000000000000000600052602260045260246000fd5b60008160011c9050919050565b6200076b81620006b5565b81146200077757600080fd5b50565b61168c806200078a6000396000f3fe6080604052600436106100f35760003560e01c80636c9c2faf1161008a578063a457c2d711610059578063a457c2d714610347578063a9059cbb14610384578063dd62ed3e146103c1578063fb8f0f59146103fe576100f3565b80636c9c2faf1461027757806370a08231146102a25780638fbb3813146102df57806395d89b411461031c576100f3565b806323b872dd116100c657806323b872dd146101b65780632d296bf1146101f3578063313ce5671461020f578063395093511461023a576100f3565b806306fdde03146100f85780630754617214610123578063095ea7b31461014e57806318160ddd1461018b575b600080fd5b34801561010457600080fd5b5061010d610429565b60405161011a9190611355565b60405180910390f35b34801561012f57600080fd5b506101386104bb565b60405161014591906112f6565b60405180910390f35b34801561015a57600080fd5b5061017560048036038101906101709190610f52565b6104e1565b604051610182919061133a565b60405180910390f35b34801561019757600080fd5b506101a06104ff565b6040516101ad9190611457565b60405180910390f35b3480156101c257600080fd5b506101dd60048036038101906101d89190610f03565b610509565b6040516101ea919061133a565b60405180910390f35b61020d60048036038101906102089190610f8e565b610601565b005b34801561021b57600080fd5b50610224610648565b6040516102319190611472565b60405180910390f35b34801561024657600080fd5b50610261600480360381019061025c9190610f52565b610651565b60405161026e919061133a565b60405180910390f35b34801561028357600080fd5b5061028c6106fd565b6040516102999190611457565b60405180910390f35b3480156102ae57600080fd5b506102c960048036038101906102c49190610e9e565b61070c565b6040516102d69190611457565b60405180910390f35b3480156102eb57600080fd5b5061030660048036038101906103019190610e9e565b610754565b6040516103139190611457565b60405180910390f35b34801561032857600080fd5b50610331610766565b60405161033e9190611355565b60405180910390f35b34801561035357600080fd5b5061036e60048036038101906103699190610f52565b6107f8565b60405161037b919061133a565b60405180910390f35b34801561039057600080fd5b506103ab60048036038101906103a69190610f52565b6108e3565b6040516103b8919061133a565b60405180910390f35b3480156103cd57600080fd5b506103e860048036038101906103e39190610ec7565b610901565b6040516103f59190611457565b60405180910390f35b34801561040a57600080fd5b50610413610988565b6040516104209190611355565b60405180910390f35b60606003805461043890611587565b80601f016020809104026020016040519081016040528092919081815260200182805461046490611587565b80156104b15780601f10610486576101008083540402835291602001916104b1565b820191906000526020600020905b81548152906001019060200180831161049457829003601f168201915b5050505050905090565b600560009054906101000a900473ffffffffffffffffffffffffffffffffffffffff1681565b60006104f56104ee610a16565b8484610a1e565b6001905092915050565b6000600254905090565b6000610516848484610be9565b6000600160008673ffffffffffffffffffffffffffffffffffffffff1673ffffffffffffffffffffffffffffffffffffffff1681526020019081526020016000206000610561610a16565b73ffffffffffffffffffffffffffffffffffffffff1673ffffffffffffffffffffffffffffffffffffffff168152602001908152602001600020549050828110156105e1576040517f08c379a00000000000000000000000000000000000000000000000000000000081526004016105d8906113d7565b60405180910390fd5b6105f5856105ed610a16565b858403610a1e565b60019150509392505050565b61060b33826108e3565b507f7e71433ddf847725166244795048ecf3e3f9f35628254ecbf736056664233493333460405161063d929190611311565b60405180910390a150565b60006012905090565b60006106f361065e610a16565b84846001600061066c610a16565b73ffffffffffffffffffffffffffffffffffffffff1673ffffffffffffffffffffffffffffffffffffffff16815260200190815260200160002060008873ffffffffffffffffffffffffffffffffffffffff1673ffffffffffffffffffffffffffffffffffffffff168152602001908152602001600020546106ee91906114a9565b610a1e565b6001905092915050565b60006107076104ff565b905090565b60008060008373ffffffffffffffffffffffffffffffffffffffff1673ffffffffffffffffffffffffffffffffffffffff168152602001908152602001600020549050919050565b600061075f8261070c565b9050919050565b60606004805461077590611587565b80601f01602080910402602001604051908101604052809291908181526020018280546107a190611587565b80156107ee5780601f106107c3576101008083540402835291602001916107ee565b820191906000526020600020905b8154815290600101906020018083116107d157829003601f168201915b5050505050905090565b60008060016000610807610a16565b73ffffffffffffffffffffffffffffffffffffffff1673ffffffffffffffffffffffffffffffffffffffff16815260200190815260200160002060008573ffffffffffffffffffffffffffffffffffffffff1673ffffffffffffffffffffffffffffffffffffffff168152602001908152602001600020549050828110156108c4576040517f08c379a00000000000000000000000000000000000000000000000000000000081526004016108bb90611437565b60405180910390fd5b6108d86108cf610a16565b85858403610a1e565b600191505092915050565b60006108f76108f0610a16565b8484610be9565b6001905092915050565b6000600160008473ffffffffffffffffffffffffffffffffffffffff1673ffffffffffffffffffffffffffffffffffffffff16815260200190815260200160002060008373ffffffffffffffffffffffffffffffffffffffff1673ffffffffffffffffffffffffffffffffffffffff16815260200190815260200160002054905092915050565b6006805461099590611587565b80601f01602080910402602001604051908101604052809291908181526020018280546109c190611587565b8015610a0e5780601f106109e357610100808354040283529160200191610a0e565b820191906000526020600020905b8154815290600101906020018083116109f157829003601f168201915b505050505081565b600033905090565b600073ffffffffffffffffffffffffffffffffffffffff168373ffffffffffffffffffffffffffffffffffffffff161415610a8e576040517f08c379a0000000000000000000000000000000000000000000000000000000008152600401610a8590611417565b60405180910390fd5b600073ffffffffffffffffffffffffffffffffffffffff168273ffffffffffffffffffffffffffffffffffffffff161415610afe576040517f08c379a0000000000000000000000000000000000000000000000000000000008152600401610af590611397565b60405180910390fd5b80600160008573ffffffffffffffffffffffffffffffffffffffff1673ffffffffffffffffffffffffffffffffffffffff16815260200190815260200160002060008473ffffffffffffffffffffffffffffffffffffffff1673ffffffffffffffffffffffffffffffffffffffff168152602001908152602001600020819055508173ffffffffffffffffffffffffffffffffffffffff168373ffffffffffffffffffffffffffffffffffffffff167f8c5be1e5ebec7d5bd14f71427d1e84f3dd0314c0f7b2291e5b200ac8c7c3b92583604051610bdc9190611457565b60405180910390a3505050565b600073ffffffffffffffffffffffffffffffffffffffff168373ffffffffffffffffffffffffffffffffffffffff161415610c59576040517f08c379a0000000000000000000000000000000000000000000000000000000008152600401610c50906113f7565b60405180910390fd5b600073ffffffffffffffffffffffffffffffffffffffff168273ffffffffffffffffffffffffffffffffffffffff161415610cc9576040517f08c379a0000000000000000000000000000000000000000000000000000000008152600401610cc090611377565b60405180910390fd5b610cd4838383610e6a565b60008060008573ffffffffffffffffffffffffffffffffffffffff1673ffffffffffffffffffffffffffffffffffffffff16815260200190815260200160002054905081811015610d5a576040517f08c379a0000000000000000000000000000000000000000000000000000000008152600401610d51906113b7565b60405180910390fd5b8181036000808673ffffffffffffffffffffffffffffffffffffffff1673ffffffffffffffffffffffffffffffffffffffff16815260200190815260200160002081905550816000808573ffffffffffffffffffffffffffffffffffffffff1673ffffffffffffffffffffffffffffffffffffffff1681526020019081526020016000206000828254610ded91906114a9565b925050819055508273ffffffffffffffffffffffffffffffffffffffff168473ffffffffffffffffffffffffffffffffffffffff167fddf252ad1be2c89b69c2b068fc378daa952ba7f163c4a11628f55a4df523b3ef84604051610e519190611457565b60405180910390a3610e64848484610e6f565b50505050565b505050565b505050565b600081359050610e8381611628565b92915050565b600081359050610e988161163f565b92915050565b600060208284031215610eb057600080fd5b6000610ebe84828501610e74565b91505092915050565b60008060408385031215610eda57600080fd5b6000610ee885828601610e74565b9250506020610ef985828601610e74565b9150509250929050565b600080600060608486031215610f1857600080fd5b6000610f2686828701610e74565b9350506020610f3786828701610e74565b9250506040610f4886828701610e89565b9150509250925092565b60008060408385031215610f6557600080fd5b6000610f7385828601610e74565b9250506020610f8485828601610e89565b9150509250929050565b600060208284031215610fa057600080fd5b6000610fae84828501610e89565b91505092915050565b610fc0816114ff565b82525050565b610fcf81611511565b82525050565b6000610fe08261148d565b610fea8185611498565b9350610ffa818560208601611554565b61100381611617565b840191505092915050565b600061101b602383611498565b91507f45524332303a207472616e7366657220746f20746865207a65726f206164647260008301527f65737300000000000000000000000000000000000000000000000000000000006020830152604082019050919050565b6000611081602283611498565b91507f45524332303a20617070726f766520746f20746865207a65726f20616464726560008301527f73730000000000000000000000000000000000000000000000000000000000006020830152604082019050919050565b60006110e7602683611498565b91507f45524332303a207472616e7366657220616d6f756e742065786365656473206260008301527f616c616e636500000000000000000000000000000000000000000000000000006020830152604082019050919050565b600061114d602883611498565b91507f45524332303a207472616e7366657220616d6f756e742065786365656473206160008301527f6c6c6f77616e63650000000000000000000000000000000000000000000000006020830152604082019050919050565b60006111b3602583611498565b91507f45524332303a207472616e736665722066726f6d20746865207a65726f20616460008301527f64726573730000000000000000000000000000000000000000000000000000006020830152604082019050919050565b6000611219602483611498565b91507f45524332303a20617070726f76652066726f6d20746865207a65726f2061646460008301527f72657373000000000000000000000000000000000000000000000000000000006020830152604082019050919050565b600061127f602583611498565b91507f45524332303a2064656372656173656420616c6c6f77616e63652062656c6f7760008301527f207a65726f0000000000000000000000000000000000000000000000000000006020830152604082019050919050565b6112e18161153d565b82525050565b6112f081611547565b82525050565b600060208201905061130b6000830184610fb7565b92915050565b60006040820190506113266000830185610fb7565b61133360208301846112d8565b9392505050565b600060208201905061134f6000830184610fc6565b92915050565b6000602082019050818103600083015261136f8184610fd5565b905092915050565b600060208201905081810360008301526113908161100e565b9050919050565b600060208201905081810360008301526113b081611074565b9050919050565b600060208201905081810360008301526113d0816110da565b9050919050565b600060208201905081810360008301526113f081611140565b9050919050565b60006020820190508181036000830152611410816111a6565b9050919050565b600060208201905081810360008301526114308161120c565b9050919050565b6000602082019050818103600083015261145081611272565b9050919050565b600060208201905061146c60008301846112d8565b92915050565b600060208201905061148760008301846112e7565b92915050565b600081519050919050565b600082825260208201905092915050565b60006114b48261153d565b91506114bf8361153d565b9250827fffffffffffffffffffffffffffffffffffffffffffffffffffffffffffffffff038211156114f4576114f36115b9565b5b828201905092915050565b600061150a8261151d565b9050919050565b60008115159050919050565b600073ffffffffffffffffffffffffffffffffffffffff82169050919050565b6000819050919050565b600060ff82169050919050565b60005b83811015611572578082015181840152602081019050611557565b83811115611581576000848401525b50505050565b6000600282049050600182168061159f57607f821691505b602082108114156115b3576115b26115e8565b5b50919050565b7f4e487b7100000000000000000000000000000000000000000000000000000000600052601160045260246000fd5b7f4e487b7100000000000000000000000000000000000000000000000000000000600052602260045260246000fd5b6000601f19601f8301169050919050565b611631816114ff565b811461163c57600080fd5b50565b6116488161153d565b811461165357600080fd5b5056fea26469706673582212206a94507caf32d0a3b6c013855e28d32504f49105c53f052b1f96ad50f9b7a9f664736f6c63430008000033",
  "immutableReferences": {},
  "source": "pragma solidity ^0.8.0;\nimport \"@openzeppelin/contracts/token/ERC20/ERC20.sol\";\n\ncontract PenroseToken is ERC20 {\n\n    event ValueReceived(address user, uint amount);\n    address public minter;\n    string public testString = \"Hope this works!\";\n\n    constructor(uint initialSupply) ERC20(\"Penrose\", \"PNR\") public {\n        _mint(msg.sender, initialSupply ** uint256(decimals()));\n        minter = msg.sender;\n    }\n\n    function getSupply() public view returns(uint) {\n        return super.totalSupply();\n    }\n\n    function getERCBalance(address _address) public view returns(uint) {\n        return super.balanceOf(_address);\n    }\n\n    // buyToken should require e.g. numberTokens per ETH\n\n    function buyToken(uint numberTokens) payable public {\n        super.transfer(msg.sender, numberTokens);\n        emit ValueReceived(msg.sender, msg.value);\n    }\n\n    // pickWinner should only be used by the minter i.e. contract creator and should randomly pick a winner\n    // from all the token holders\n\n//    function pickWinner() public returns(address) {\n//        require(msg.sender == minter);\n        // logic to pick winner e.g. get latest block ... randomness\n        // address winner =\n//         return winner;\n//    }\n\n}\n\n\n//TODO and useful commands\n//instance2.totalSupply().then(result => result.toString()) to convert BN to readable number\n//instance2.balanceOf(payerAddress) to get balance of payerAddress\n//web3.eth.getBalance(instance2.address) to get balance of contractAddress\n//const inst = await PenroseToken.new(123)\n//instToken.transfer(receiverAddress, 99)\n\n//     const payment1 = await instToken.buyToken(1, {to: web3.utils.toChecksumAddress(instToken.address), from: web3.utils.toChecksumAddress('0x6bce403cd96ee6118ec49892c4d8a179727b5816'), value: web3.utils.toWei(\"1\", \"ether\")})\n\n//truffle exec scripts/query.js --network development",
  "sourcePath": "/Users/oliver.flynn/penrose-lotto/contracts/PenroseToken.sol",
  "compiler": {
    "name": "solc",
    "version": "0.8.0+commit.c7dfd78e.Emscripten.clang"
  },
  "schemaVersion": "3.4.2",
  "updatedAt": "2021-11-01T17:31:27.645Z",
  "networkType": "ethereum",
  "devdoc": {
    "kind": "dev",
    "methods": {
      "allowance(address,address)": {
        "details": "See {IERC20-allowance}."
      },
      "approve(address,uint256)": {
        "details": "See {IERC20-approve}. Requirements: - `spender` cannot be the zero address."
      },
      "balanceOf(address)": {
        "details": "See {IERC20-balanceOf}."
      },
      "decimals()": {
        "details": "Returns the number of decimals used to get its user representation. For example, if `decimals` equals `2`, a balance of `505` tokens should be displayed to a user as `5,05` (`505 / 10 ** 2`). Tokens usually opt for a value of 18, imitating the relationship between Ether and Wei. This is the value {ERC20} uses, unless this function is overridden; NOTE: This information is only used for _display_ purposes: it in no way affects any of the arithmetic of the contract, including {IERC20-balanceOf} and {IERC20-transfer}."
      },
      "decreaseAllowance(address,uint256)": {
        "details": "Atomically decreases the allowance granted to `spender` by the caller. This is an alternative to {approve} that can be used as a mitigation for problems described in {IERC20-approve}. Emits an {Approval} event indicating the updated allowance. Requirements: - `spender` cannot be the zero address. - `spender` must have allowance for the caller of at least `subtractedValue`."
      },
      "increaseAllowance(address,uint256)": {
        "details": "Atomically increases the allowance granted to `spender` by the caller. This is an alternative to {approve} that can be used as a mitigation for problems described in {IERC20-approve}. Emits an {Approval} event indicating the updated allowance. Requirements: - `spender` cannot be the zero address."
      },
      "name()": {
        "details": "Returns the name of the token."
      },
      "symbol()": {
        "details": "Returns the symbol of the token, usually a shorter version of the name."
      },
      "totalSupply()": {
        "details": "See {IERC20-totalSupply}."
      },
      "transfer(address,uint256)": {
        "details": "See {IERC20-transfer}. Requirements: - `recipient` cannot be the zero address. - the caller must have a balance of at least `amount`."
      },
      "transferFrom(address,address,uint256)": {
        "details": "See {IERC20-transferFrom}. Emits an {Approval} event indicating the updated allowance. This is not required by the EIP. See the note at the beginning of {ERC20}. Requirements: - `sender` and `recipient` cannot be the zero address. - `sender` must have a balance of at least `amount`. - the caller must have allowance for ``sender``'s tokens of at least `amount`."
      }
    },
    "version": 1
  },
  "userdoc": {
    "kind": "user",
    "methods": {},
    "version": 1
  }
}