{
  "contractName": "PenroseToken",
  "abi": [
    {
      "inputs": [
        {
          "internalType": "uint256",
          "name": "initialSupply",
          "type": "uint256"
        }
      ],
      "stateMutability": "nonpayable",
      "type": "constructor"
    },
    {
      "anonymous": false,
      "inputs": [
        {
          "indexed": true,
          "internalType": "address",
          "name": "owner",
          "type": "address"
        },
        {
          "indexed": true,
          "internalType": "address",
          "name": "spender",
          "type": "address"
        },
        {
          "indexed": false,
          "internalType": "uint256",
          "name": "value",
          "type": "uint256"
        }
      ],
      "name": "Approval",
      "type": "event"
    },
    {
      "anonymous": false,
      "inputs": [
        {
          "indexed": true,
          "internalType": "address",
          "name": "from",
          "type": "address"
        },
        {
          "indexed": true,
          "internalType": "address",
          "name": "to",
          "type": "address"
        },
        {
          "indexed": false,
          "internalType": "uint256",
          "name": "value",
          "type": "uint256"
        }
      ],
      "name": "Transfer",
      "type": "event"
    },
    {
      "anonymous": false,
      "inputs": [
        {
          "indexed": false,
          "internalType": "address",
          "name": "user",
          "type": "address"
        },
        {
          "indexed": false,
          "internalType": "uint256",
          "name": "amount",
          "type": "uint256"
        }
      ],
      "name": "ValueReceived",
      "type": "event"
    },
    {
      "inputs": [
        {
          "internalType": "address",
          "name": "owner",
          "type": "address"
        },
        {
          "internalType": "address",
          "name": "spender",
          "type": "address"
        }
      ],
      "name": "allowance",
      "outputs": [
        {
          "internalType": "uint256",
          "name": "",
          "type": "uint256"
        }
      ],
      "stateMutability": "view",
      "type": "function",
      "constant": true
    },
    {
      "inputs": [
        {
          "internalType": "address",
          "name": "spender",
          "type": "address"
        },
        {
          "internalType": "uint256",
          "name": "amount",
          "type": "uint256"
        }
      ],
      "name": "approve",
      "outputs": [
        {
          "internalType": "bool",
          "name": "",
          "type": "bool"
        }
      ],
      "stateMutability": "nonpayable",
      "type": "function"
    },
    {
      "inputs": [
        {
          "internalType": "address",
          "name": "account",
          "type": "address"
        }
      ],
      "name": "balanceOf",
      "outputs": [
        {
          "internalType": "uint256",
          "name": "",
          "type": "uint256"
        }
      ],
      "stateMutability": "view",
      "type": "function",
      "constant": true
    },
    {
      "inputs": [],
      "name": "decimals",
      "outputs": [
        {
          "internalType": "uint8",
          "name": "",
          "type": "uint8"
        }
      ],
      "stateMutability": "view",
      "type": "function",
      "constant": true
    },
    {
      "inputs": [
        {
          "internalType": "address",
          "name": "spender",
          "type": "address"
        },
        {
          "internalType": "uint256",
          "name": "subtractedValue",
          "type": "uint256"
        }
      ],
      "name": "decreaseAllowance",
      "outputs": [
        {
          "internalType": "bool",
          "name": "",
          "type": "bool"
        }
      ],
      "stateMutability": "nonpayable",
      "type": "function"
    },
    {
      "inputs": [
        {
          "internalType": "address",
          "name": "spender",
          "type": "address"
        },
        {
          "internalType": "uint256",
          "name": "addedValue",
          "type": "uint256"
        }
      ],
      "name": "increaseAllowance",
      "outputs": [
        {
          "internalType": "bool",
          "name": "",
          "type": "bool"
        }
      ],
      "stateMutability": "nonpayable",
      "type": "function"
    },
    {
      "inputs": [],
      "name": "minter",
      "outputs": [
        {
          "internalType": "address",
          "name": "",
          "type": "address"
        }
      ],
      "stateMutability": "view",
      "type": "function",
      "constant": true
    },
    {
      "inputs": [],
      "name": "name",
      "outputs": [
        {
          "internalType": "string",
          "name": "",
          "type": "string"
        }
      ],
      "stateMutability": "view",
      "type": "function",
      "constant": true
    },
    {
      "inputs": [],
      "name": "symbol",
      "outputs": [
        {
          "internalType": "string",
          "name": "",
          "type": "string"
        }
      ],
      "stateMutability": "view",
      "type": "function",
      "constant": true
    },
    {
      "inputs": [],
      "name": "totalSupply",
      "outputs": [
        {
          "internalType": "uint256",
          "name": "",
          "type": "uint256"
        }
      ],
      "stateMutability": "view",
      "type": "function",
      "constant": true
    },
    {
      "inputs": [
        {
          "internalType": "address",
          "name": "recipient",
          "type": "address"
        },
        {
          "internalType": "uint256",
          "name": "amount",
          "type": "uint256"
        }
      ],
      "name": "transfer",
      "outputs": [
        {
          "internalType": "bool",
          "name": "",
          "type": "bool"
        }
      ],
      "stateMutability": "nonpayable",
      "type": "function"
    },
    {
      "inputs": [
        {
          "internalType": "address",
          "name": "sender",
          "type": "address"
        },
        {
          "internalType": "address",
          "name": "recipient",
          "type": "address"
        },
        {
          "internalType": "uint256",
          "name": "amount",
          "type": "uint256"
        }
      ],
      "name": "transferFrom",
      "outputs": [
        {
          "internalType": "bool",
          "name": "",
          "type": "bool"
        }
      ],
      "stateMutability": "nonpayable",
      "type": "function"
    },
    {
      "inputs": [],
      "name": "getSupply",
      "outputs": [
        {
          "internalType": "uint256",
          "name": "",
          "type": "uint256"
        }
      ],
      "stateMutability": "view",
      "type": "function",
      "constant": true
    },
    {
      "inputs": [
        {
          "internalType": "address",
          "name": "_address",
          "type": "address"
        }
      ],
      "name": "getERCBalance",
      "outputs": [
        {
          "internalType": "uint256",
          "name": "",
          "type": "uint256"
        }
      ],
      "stateMutability": "view",
      "type": "function",
      "constant": true
    },
    {
      "inputs": [
        {
          "internalType": "uint256",
          "name": "numberTokens",
          "type": "uint256"
        },
        {
          "internalType": "uint256",
          "name": "tokenPrice",
          "type": "uint256"
        }
      ],
      "name": "buyToken",
      "outputs": [
        {
          "internalType": "bool",
          "name": "",
          "type": "bool"
        }
      ],
      "stateMutability": "payable",
      "type": "function",
      "payable": true
    }
  ],
  "bytecode": "0x60806040523480156200001157600080fd5b5060405162001bfd38038062001bfd83398181016040528101906200003791906200039d565b6040518060400160405280600781526020017f50656e726f7365000000000000000000000000000000000000000000000000008152506040518060400160405280600381526020017f504e5200000000000000000000000000000000000000000000000000000000008152508160039080519060200190620000bb929190620002d6565b508060049080519060200190620000d4929190620002d6565b50505033600560006101000a81548173ffffffffffffffffffffffffffffffffffffffff021916908373ffffffffffffffffffffffffffffffffffffffff1602179055506200014c600560009054906101000a900473ffffffffffffffffffffffffffffffffffffffff16826200015360201b60201c565b5062000581565b600073ffffffffffffffffffffffffffffffffffffffff168273ffffffffffffffffffffffffffffffffffffffff161415620001c6576040517f08c379a0000000000000000000000000000000000000000000000000000000008152600401620001bd906200041c565b60405180910390fd5b620001da60008383620002cc60201b60201c565b8060026000828254620001ee91906200046c565b92505081905550806000808473ffffffffffffffffffffffffffffffffffffffff1673ffffffffffffffffffffffffffffffffffffffff16815260200190815260200160002060008282546200024591906200046c565b925050819055508173ffffffffffffffffffffffffffffffffffffffff16600073ffffffffffffffffffffffffffffffffffffffff167fddf252ad1be2c89b69c2b068fc378daa952ba7f163c4a11628f55a4df523b3ef83604051620002ac91906200043e565b60405180910390a3620002c860008383620002d160201b60201c565b5050565b505050565b505050565b828054620002e490620004d3565b90600052602060002090601f01602090048101928262000308576000855562000354565b82601f106200032357805160ff191683800117855562000354565b8280016001018555821562000354579182015b828111156200035357825182559160200191906001019062000336565b5b50905062000363919062000367565b5090565b5b808211156200038257600081600090555060010162000368565b5090565b600081519050620003978162000567565b92915050565b600060208284031215620003b057600080fd5b6000620003c08482850162000386565b91505092915050565b6000620003d8601f836200045b565b91507f45524332303a206d696e7420746f20746865207a65726f2061646472657373006000830152602082019050919050565b6200041681620004c9565b82525050565b600060208201905081810360008301526200043781620003c9565b9050919050565b60006020820190506200045560008301846200040b565b92915050565b600082825260208201905092915050565b60006200047982620004c9565b91506200048683620004c9565b9250827fffffffffffffffffffffffffffffffffffffffffffffffffffffffffffffffff03821115620004be57620004bd62000509565b5b828201905092915050565b6000819050919050565b60006002820490506001821680620004ec57607f821691505b6020821081141562000503576200050262000538565b5b50919050565b7f4e487b7100000000000000000000000000000000000000000000000000000000600052601160045260246000fd5b7f4e487b7100000000000000000000000000000000000000000000000000000000600052602260045260246000fd5b6200057281620004c9565b81146200057e57600080fd5b50565b61166c80620005916000396000f3fe6080604052600436106100e85760003560e01c8063395093511161008a57806395d89b411161005957806395d89b4114610325578063a457c2d714610350578063a9059cbb1461038d578063dd62ed3e146103ca576100e8565b806339509351146102435780636c9c2faf1461028057806370a08231146102ab5780638fbb3813146102e8576100e8565b8063095ea7b3116100c6578063095ea7b31461017357806318160ddd146101b057806323b872dd146101db578063313ce56714610218576100e8565b8063057466ea146100ed57806306fdde031461011d5780630754617214610148575b600080fd5b61010760048036038101906101029190610f01565b610407565b60405161011491906112c0565b60405180910390f35b34801561012957600080fd5b50610132610471565b60405161013f91906112db565b60405180910390f35b34801561015457600080fd5b5061015d610503565b60405161016a919061127c565b60405180910390f35b34801561017f57600080fd5b5061019a60048036038101906101959190610ec5565b610529565b6040516101a791906112c0565b60405180910390f35b3480156101bc57600080fd5b506101c5610547565b6040516101d291906113dd565b60405180910390f35b3480156101e757600080fd5b5061020260048036038101906101fd9190610e76565b610551565b60405161020f91906112c0565b60405180910390f35b34801561022457600080fd5b5061022d610649565b60405161023a91906113f8565b60405180910390f35b34801561024f57600080fd5b5061026a60048036038101906102659190610ec5565b610652565b60405161027791906112c0565b60405180910390f35b34801561028c57600080fd5b506102956106fe565b6040516102a291906113dd565b60405180910390f35b3480156102b757600080fd5b506102d260048036038101906102cd9190610e11565b61070d565b6040516102df91906113dd565b60405180910390f35b3480156102f457600080fd5b5061030f600480360381019061030a9190610e11565b610755565b60405161031c91906113dd565b60405180910390f35b34801561033157600080fd5b5061033a610767565b60405161034791906112db565b60405180910390f35b34801561035c57600080fd5b5061037760048036038101906103729190610ec5565b6107f9565b60405161038491906112c0565b60405180910390f35b34801561039957600080fd5b506103b460048036038101906103af9190610ec5565b6108e4565b6040516103c191906112c0565b60405180910390f35b3480156103d657600080fd5b506103f160048036038101906103ec9190610e3a565b610902565b6040516103fe91906113dd565b60405180910390f35b60008060009050828461041a9190611485565b3411156104675761042b33856108e4565b90507f7e71433ddf847725166244795048ecf3e3f9f35628254ecbf736056664233493333460405161045e929190611297565b60405180910390a15b8091505092915050565b60606003805461048090611567565b80601f01602080910402602001604051908101604052809291908181526020018280546104ac90611567565b80156104f95780601f106104ce576101008083540402835291602001916104f9565b820191906000526020600020905b8154815290600101906020018083116104dc57829003601f168201915b5050505050905090565b600560009054906101000a900473ffffffffffffffffffffffffffffffffffffffff1681565b600061053d610536610989565b8484610991565b6001905092915050565b6000600254905090565b600061055e848484610b5c565b6000600160008673ffffffffffffffffffffffffffffffffffffffff1673ffffffffffffffffffffffffffffffffffffffff16815260200190815260200160002060006105a9610989565b73ffffffffffffffffffffffffffffffffffffffff1673ffffffffffffffffffffffffffffffffffffffff16815260200190815260200160002054905082811015610629576040517f08c379a00000000000000000000000000000000000000000000000000000000081526004016106209061135d565b60405180910390fd5b61063d85610635610989565b858403610991565b60019150509392505050565b60006012905090565b60006106f461065f610989565b84846001600061066d610989565b73ffffffffffffffffffffffffffffffffffffffff1673ffffffffffffffffffffffffffffffffffffffff16815260200190815260200160002060008873ffffffffffffffffffffffffffffffffffffffff1673ffffffffffffffffffffffffffffffffffffffff168152602001908152602001600020546106ef919061142f565b610991565b6001905092915050565b6000610708610547565b905090565b60008060008373ffffffffffffffffffffffffffffffffffffffff1673ffffffffffffffffffffffffffffffffffffffff168152602001908152602001600020549050919050565b60006107608261070d565b9050919050565b60606004805461077690611567565b80601f01602080910402602001604051908101604052809291908181526020018280546107a290611567565b80156107ef5780601f106107c4576101008083540402835291602001916107ef565b820191906000526020600020905b8154815290600101906020018083116107d257829003601f168201915b5050505050905090565b60008060016000610808610989565b73ffffffffffffffffffffffffffffffffffffffff1673ffffffffffffffffffffffffffffffffffffffff16815260200190815260200160002060008573ffffffffffffffffffffffffffffffffffffffff1673ffffffffffffffffffffffffffffffffffffffff168152602001908152602001600020549050828110156108c5576040517f08c379a00000000000000000000000000000000000000000000000000000000081526004016108bc906113bd565b60405180910390fd5b6108d96108d0610989565b85858403610991565b600191505092915050565b60006108f86108f1610989565b8484610b5c565b6001905092915050565b6000600160008473ffffffffffffffffffffffffffffffffffffffff1673ffffffffffffffffffffffffffffffffffffffff16815260200190815260200160002060008373ffffffffffffffffffffffffffffffffffffffff1673ffffffffffffffffffffffffffffffffffffffff16815260200190815260200160002054905092915050565b600033905090565b600073ffffffffffffffffffffffffffffffffffffffff168373ffffffffffffffffffffffffffffffffffffffff161415610a01576040517f08c379a00000000000000000000000000000000000000000000000000000000081526004016109f89061139d565b60405180910390fd5b600073ffffffffffffffffffffffffffffffffffffffff168273ffffffffffffffffffffffffffffffffffffffff161415610a71576040517f08c379a0000000000000000000000000000000000000000000000000000000008152600401610a689061131d565b60405180910390fd5b80600160008573ffffffffffffffffffffffffffffffffffffffff1673ffffffffffffffffffffffffffffffffffffffff16815260200190815260200160002060008473ffffffffffffffffffffffffffffffffffffffff1673ffffffffffffffffffffffffffffffffffffffff168152602001908152602001600020819055508173ffffffffffffffffffffffffffffffffffffffff168373ffffffffffffffffffffffffffffffffffffffff167f8c5be1e5ebec7d5bd14f71427d1e84f3dd0314c0f7b2291e5b200ac8c7c3b92583604051610b4f91906113dd565b60405180910390a3505050565b600073ffffffffffffffffffffffffffffffffffffffff168373ffffffffffffffffffffffffffffffffffffffff161415610bcc576040517f08c379a0000000000000000000000000000000000000000000000000000000008152600401610bc39061137d565b60405180910390fd5b600073ffffffffffffffffffffffffffffffffffffffff168273ffffffffffffffffffffffffffffffffffffffff161415610c3c576040517f08c379a0000000000000000000000000000000000000000000000000000000008152600401610c33906112fd565b60405180910390fd5b610c47838383610ddd565b60008060008573ffffffffffffffffffffffffffffffffffffffff1673ffffffffffffffffffffffffffffffffffffffff16815260200190815260200160002054905081811015610ccd576040517f08c379a0000000000000000000000000000000000000000000000000000000008152600401610cc49061133d565b60405180910390fd5b8181036000808673ffffffffffffffffffffffffffffffffffffffff1673ffffffffffffffffffffffffffffffffffffffff16815260200190815260200160002081905550816000808573ffffffffffffffffffffffffffffffffffffffff1673ffffffffffffffffffffffffffffffffffffffff1681526020019081526020016000206000828254610d60919061142f565b925050819055508273ffffffffffffffffffffffffffffffffffffffff168473ffffffffffffffffffffffffffffffffffffffff167fddf252ad1be2c89b69c2b068fc378daa952ba7f163c4a11628f55a4df523b3ef84604051610dc491906113dd565b60405180910390a3610dd7848484610de2565b50505050565b505050565b505050565b600081359050610df681611608565b92915050565b600081359050610e0b8161161f565b92915050565b600060208284031215610e2357600080fd5b6000610e3184828501610de7565b91505092915050565b60008060408385031215610e4d57600080fd5b6000610e5b85828601610de7565b9250506020610e6c85828601610de7565b9150509250929050565b600080600060608486031215610e8b57600080fd5b6000610e9986828701610de7565b9350506020610eaa86828701610de7565b9250506040610ebb86828701610dfc565b9150509250925092565b60008060408385031215610ed857600080fd5b6000610ee685828601610de7565b9250506020610ef785828601610dfc565b9150509250929050565b60008060408385031215610f1457600080fd5b6000610f2285828601610dfc565b9250506020610f3385828601610dfc565b9150509250929050565b610f46816114df565b82525050565b610f55816114f1565b82525050565b6000610f6682611413565b610f70818561141e565b9350610f80818560208601611534565b610f89816115f7565b840191505092915050565b6000610fa160238361141e565b91507f45524332303a207472616e7366657220746f20746865207a65726f206164647260008301527f65737300000000000000000000000000000000000000000000000000000000006020830152604082019050919050565b600061100760228361141e565b91507f45524332303a20617070726f766520746f20746865207a65726f20616464726560008301527f73730000000000000000000000000000000000000000000000000000000000006020830152604082019050919050565b600061106d60268361141e565b91507f45524332303a207472616e7366657220616d6f756e742065786365656473206260008301527f616c616e636500000000000000000000000000000000000000000000000000006020830152604082019050919050565b60006110d360288361141e565b91507f45524332303a207472616e7366657220616d6f756e742065786365656473206160008301527f6c6c6f77616e63650000000000000000000000000000000000000000000000006020830152604082019050919050565b600061113960258361141e565b91507f45524332303a207472616e736665722066726f6d20746865207a65726f20616460008301527f64726573730000000000000000000000000000000000000000000000000000006020830152604082019050919050565b600061119f60248361141e565b91507f45524332303a20617070726f76652066726f6d20746865207a65726f2061646460008301527f72657373000000000000000000000000000000000000000000000000000000006020830152604082019050919050565b600061120560258361141e565b91507f45524332303a2064656372656173656420616c6c6f77616e63652062656c6f7760008301527f207a65726f0000000000000000000000000000000000000000000000000000006020830152604082019050919050565b6112678161151d565b82525050565b61127681611527565b82525050565b60006020820190506112916000830184610f3d565b92915050565b60006040820190506112ac6000830185610f3d565b6112b9602083018461125e565b9392505050565b60006020820190506112d56000830184610f4c565b92915050565b600060208201905081810360008301526112f58184610f5b565b905092915050565b6000602082019050818103600083015261131681610f94565b9050919050565b6000602082019050818103600083015261133681610ffa565b9050919050565b6000602082019050818103600083015261135681611060565b9050919050565b60006020820190508181036000830152611376816110c6565b9050919050565b600060208201905081810360008301526113968161112c565b9050919050565b600060208201905081810360008301526113b681611192565b9050919050565b600060208201905081810360008301526113d6816111f8565b9050919050565b60006020820190506113f2600083018461125e565b92915050565b600060208201905061140d600083018461126d565b92915050565b600081519050919050565b600082825260208201905092915050565b600061143a8261151d565b91506114458361151d565b9250827fffffffffffffffffffffffffffffffffffffffffffffffffffffffffffffffff0382111561147a57611479611599565b5b828201905092915050565b60006114908261151d565b915061149b8361151d565b9250817fffffffffffffffffffffffffffffffffffffffffffffffffffffffffffffffff04831182151516156114d4576114d3611599565b5b828202905092915050565b60006114ea826114fd565b9050919050565b60008115159050919050565b600073ffffffffffffffffffffffffffffffffffffffff82169050919050565b6000819050919050565b600060ff82169050919050565b60005b83811015611552578082015181840152602081019050611537565b83811115611561576000848401525b50505050565b6000600282049050600182168061157f57607f821691505b60208210811415611593576115926115c8565b5b50919050565b7f4e487b7100000000000000000000000000000000000000000000000000000000600052601160045260246000fd5b7f4e487b7100000000000000000000000000000000000000000000000000000000600052602260045260246000fd5b6000601f19601f8301169050919050565b611611816114df565b811461161c57600080fd5b50565b6116288161151d565b811461163357600080fd5b5056fea26469706673582212208bbb735a6bd9d58aee1948593f2090c150cc53b87405bf67ffb94af1ed3b202c64736f6c63430008000033",
  "immutableReferences": {},
  "source": "pragma solidity ^0.8.0;\nimport \"@openzeppelin/contracts/token/ERC20/ERC20.sol\";\n\ncontract PenroseToken is ERC20 {\n\n    event ValueReceived(address user, uint amount);\n    address public minter;\n\n    constructor(uint initialSupply) ERC20(\"Penrose\", \"PNR\") public {\n        minter = msg.sender;\n        _mint(minter, initialSupply);\n\n    }\n\n    function getSupply() public view returns(uint) {\n        return super.totalSupply();\n    }\n\n    function getERCBalance(address _address) public view returns(uint) {\n        return super.balanceOf(_address);\n    }\n\n    // buyToken should require e.g. numberTokens per ETH or msg.value\n\n    function buyToken(uint numberTokens, uint tokenPrice) payable public returns(bool) {\n        bool success = false;\n        if(msg.value > numberTokens*tokenPrice) {\n            success = super.transfer(msg.sender, numberTokens);\n            emit ValueReceived(msg.sender, msg.value);\n        } return success;\n\n    }\n\n    // Need to figure out what the default in the init migration and then make sure that what is being sent in the UI is\n    // appropriate when buying a token\n\n    // pickWinner should only be used by the minter i.e. contract creator and should randomly pick a winner\n    // from all the token holders\n\n//    function pickWinner() public returns(address) {\n//        require(msg.sender == minter);\n        // logic to pick winner e.g. get latest block ... randomness\n        // address winner =\n//         return winner;\n//    }\n\n}\n\n\n//TODO and useful commands\n//instance2.totalSupply().then(result => result.toString()) to convert BN to readable number\n//instance2.balanceOf(payerAddress) to get balance of payerAddress\n//web3.eth.getBalance(instance2.address) to get balance of contractAddress\n//const inst = await PenroseToken.new(123)\n//instToken.transfer(receiverAddress, 99)\n\n//     const payment1 = await instToken.buyToken(1, {to: web3.utils.toChecksumAddress(instToken.address), from: web3.utils.toChecksumAddress('0x6bce403cd96ee6118ec49892c4d8a179727b5816'), value: web3.utils.toWei(\"1\", \"ether\")})\n\n//truffle exec scripts/query.js --network development",
  "sourcePath": "/Users/oliver.flynn/penrose-lotto/contracts/PenroseToken.sol",
  "compiler": {
    "name": "solc",
    "version": "0.8.0+commit.c7dfd78e.Emscripten.clang"
  },
  "schemaVersion": "3.4.2",
  "updatedAt": "2021-11-06T10:57:32.399Z",
  "networkType": "ethereum",
  "devdoc": {
    "kind": "dev",
    "methods": {
      "allowance(address,address)": {
        "details": "See {IERC20-allowance}."
      },
      "approve(address,uint256)": {
        "details": "See {IERC20-approve}. Requirements: - `spender` cannot be the zero address."
      },
      "balanceOf(address)": {
        "details": "See {IERC20-balanceOf}."
      },
      "decimals()": {
        "details": "Returns the number of decimals used to get its user representation. For example, if `decimals` equals `2`, a balance of `505` tokens should be displayed to a user as `5,05` (`505 / 10 ** 2`). Tokens usually opt for a value of 18, imitating the relationship between Ether and Wei. This is the value {ERC20} uses, unless this function is overridden; NOTE: This information is only used for _display_ purposes: it in no way affects any of the arithmetic of the contract, including {IERC20-balanceOf} and {IERC20-transfer}."
      },
      "decreaseAllowance(address,uint256)": {
        "details": "Atomically decreases the allowance granted to `spender` by the caller. This is an alternative to {approve} that can be used as a mitigation for problems described in {IERC20-approve}. Emits an {Approval} event indicating the updated allowance. Requirements: - `spender` cannot be the zero address. - `spender` must have allowance for the caller of at least `subtractedValue`."
      },
      "increaseAllowance(address,uint256)": {
        "details": "Atomically increases the allowance granted to `spender` by the caller. This is an alternative to {approve} that can be used as a mitigation for problems described in {IERC20-approve}. Emits an {Approval} event indicating the updated allowance. Requirements: - `spender` cannot be the zero address."
      },
      "name()": {
        "details": "Returns the name of the token."
      },
      "symbol()": {
        "details": "Returns the symbol of the token, usually a shorter version of the name."
      },
      "totalSupply()": {
        "details": "See {IERC20-totalSupply}."
      },
      "transfer(address,uint256)": {
        "details": "See {IERC20-transfer}. Requirements: - `recipient` cannot be the zero address. - the caller must have a balance of at least `amount`."
      },
      "transferFrom(address,address,uint256)": {
        "details": "See {IERC20-transferFrom}. Emits an {Approval} event indicating the updated allowance. This is not required by the EIP. See the note at the beginning of {ERC20}. Requirements: - `sender` and `recipient` cannot be the zero address. - `sender` must have a balance of at least `amount`. - the caller must have allowance for ``sender``'s tokens of at least `amount`."
      }
    },
    "version": 1
  },
  "userdoc": {
    "kind": "user",
    "methods": {},
    "version": 1
  }
}