{
  "contractName": "Greeter",
  "abi": [
    {
      "inputs": [
        {
          "internalType": "string",
          "name": "_greeting",
          "type": "string"
        }
      ],
      "stateMutability": "nonpayable",
      "type": "constructor"
    },
    {
      "anonymous": false,
      "inputs": [
        {
          "indexed": false,
          "internalType": "address",
          "name": "user",
          "type": "address"
        },
        {
          "indexed": false,
          "internalType": "uint256",
          "name": "amount",
          "type": "uint256"
        }
      ],
      "name": "ValueReceived",
      "type": "event"
    },
    {
      "anonymous": false,
      "inputs": [
        {
          "indexed": false,
          "internalType": "string",
          "name": "_greeting",
          "type": "string"
        }
      ],
      "name": "ValueSet",
      "type": "event"
    },
    {
      "inputs": [],
      "name": "amount",
      "outputs": [
        {
          "internalType": "uint256",
          "name": "",
          "type": "uint256"
        }
      ],
      "stateMutability": "view",
      "type": "function"
    },
    {
      "inputs": [],
      "name": "greet",
      "outputs": [
        {
          "internalType": "string",
          "name": "",
          "type": "string"
        }
      ],
      "stateMutability": "view",
      "type": "function"
    },
    {
      "inputs": [
        {
          "internalType": "string",
          "name": "_greeting",
          "type": "string"
        }
      ],
      "name": "setGreeting",
      "outputs": [],
      "stateMutability": "nonpayable",
      "type": "function"
    },
    {
      "inputs": [],
      "name": "payGreeter",
      "outputs": [],
      "stateMutability": "payable",
      "type": "function"
    },
    {
      "inputs": [],
      "name": "getBalance",
      "outputs": [
        {
          "internalType": "uint256",
          "name": "",
          "type": "uint256"
        }
      ],
      "stateMutability": "view",
      "type": "function"
    }
  ],
  "bytecode": "0x60806040523480156200001157600080fd5b506040516200100238038062001002833981810160405281019062000037919062000280565b6200006760405180606001604052806022815260200162000fe060229139826200008f60201b620003231760201c565b80600090805190602001906200007f9291906200015e565b506000600181905550506200049f565b620001318282604051602401620000a892919062000306565b6040516020818303038152906040527f4b5c4277000000000000000000000000000000000000000000000000000000007bffffffffffffffffffffffffffffffffffffffffffffffffffffffff19166020820180517bffffffffffffffffffffffffffffffffffffffffffffffffffffffff83818316178352505050506200013560201b60201c565b5050565b60008151905060006a636f6e736f6c652e6c6f679050602083016000808483855afa5050505050565b8280546200016c90620003fa565b90600052602060002090601f016020900481019282620001905760008555620001dc565b82601f10620001ab57805160ff1916838001178555620001dc565b82800160010185558215620001dc579182015b82811115620001db578251825591602001919060010190620001be565b5b509050620001eb9190620001ef565b5090565b5b808211156200020a576000816000905550600101620001f0565b5090565b6000620002256200021f8462000375565b62000341565b9050828152602081018484840111156200023e57600080fd5b6200024b848285620003c4565b509392505050565b600082601f8301126200026557600080fd5b8151620002778482602086016200020e565b91505092915050565b6000602082840312156200029357600080fd5b600082015167ffffffffffffffff811115620002ae57600080fd5b620002bc8482850162000253565b91505092915050565b6000620002d282620003a8565b620002de8185620003b3565b9350620002f0818560208601620003c4565b620002fb816200048e565b840191505092915050565b60006040820190508181036000830152620003228185620002c5565b90508181036020830152620003388184620002c5565b90509392505050565b6000604051905081810181811067ffffffffffffffff821117156200036b576200036a6200045f565b5b8060405250919050565b600067ffffffffffffffff8211156200039357620003926200045f565b5b601f19601f8301169050602081019050919050565b600081519050919050565b600082825260208201905092915050565b60005b83811015620003e4578082015181840152602081019050620003c7565b83811115620003f4576000848401525b50505050565b600060028204905060018216806200041357607f821691505b602082108114156200042a576200042962000430565b5b50919050565b7f4e487b7100000000000000000000000000000000000000000000000000000000600052602260045260246000fd5b7f4e487b7100000000000000000000000000000000000000000000000000000000600052604160045260246000fd5b6000601f19601f8301169050919050565b610b3180620004af6000396000f3fe60806040526004361061004a5760003560e01c806312065fe01461004f578063a41368621461007a578063aa8c217c146100a3578063cfae3217146100ce578063fbc58bb5146100f9575b600080fd5b34801561005b57600080fd5b50610064610103565b6040516100719190610866565b60405180910390f35b34801561008657600080fd5b506100a1600480360381019061009c919061062e565b61010d565b005b3480156100af57600080fd5b506100b861020c565b6040516100c59190610866565b60405180910390f35b3480156100da57600080fd5b506100e3610212565b6040516100f0919061076f565b60405180910390f35b6101016102a4565b005b6000600154905090565b6101ba604051806060016040528060238152602001610ab86023913960008054610136906109e7565b80601f0160208091040260200160405190810160405280929190818152602001828054610162906109e7565b80156101af5780601f10610184576101008083540402835291602001916101af565b820191906000526020600020905b81548152906001019060200180831161019257829003601f168201915b5050505050836103bf565b80600090805190602001906101d0929190610523565b507f6648b92968253edeee9075bb6d68eaccc2a53bfcf324ed82b657fa9412eae1da60006040516102019190610844565b60405180910390a150565b60015481565b606060008054610221906109e7565b80601f016020809104026020016040519081016040528092919081815260200182805461024d906109e7565b801561029a5780601f1061026f5761010080835404028352916020019161029a565b820191906000526020600020905b81548152906001019060200180831161027d57829003601f168201915b5050505050905090565b6102c6604051806060016040528060218152602001610adb602191393461045e565b34600281905550600254600160008282546102e19190610913565b925050819055507f7e71433ddf847725166244795048ecf3e3f9f35628254ecbf7360566642334933334604051610319929190610746565b60405180910390a1565b6103bb8282604051602401610339929190610791565b6040516020818303038152906040527f4b5c4277000000000000000000000000000000000000000000000000000000007bffffffffffffffffffffffffffffffffffffffffffffffffffffffff19166020820180517bffffffffffffffffffffffffffffffffffffffffffffffffffffffff83818316178352505050506104fa565b5050565b6104598383836040516024016103d7939291906107c8565b6040516020818303038152906040527f2ced7cef000000000000000000000000000000000000000000000000000000007bffffffffffffffffffffffffffffffffffffffffffffffffffffffff19166020820180517bffffffffffffffffffffffffffffffffffffffffffffffffffffffff83818316178352505050506104fa565b505050565b6104f68282604051602401610474929190610814565b6040516020818303038152906040527f9710a9d0000000000000000000000000000000000000000000000000000000007bffffffffffffffffffffffffffffffffffffffffffffffffffffffff19166020820180517bffffffffffffffffffffffffffffffffffffffffffffffffffffffff83818316178352505050506104fa565b5050565b60008151905060006a636f6e736f6c652e6c6f679050602083016000808483855afa5050505050565b82805461052f906109e7565b90600052602060002090601f0160209004810192826105515760008555610598565b82601f1061056a57805160ff1916838001178555610598565b82800160010185558215610598579182015b8281111561059757825182559160200191906001019061057c565b5b5090506105a591906105a9565b5090565b5b808211156105c25760008160009055506001016105aa565b5090565b60006105d96105d4846108b2565b610881565b9050828152602081018484840111156105f157600080fd5b6105fc8482856109a5565b509392505050565b600082601f83011261061557600080fd5b81356106258482602086016105c6565b91505092915050565b60006020828403121561064057600080fd5b600082013567ffffffffffffffff81111561065a57600080fd5b61066684828501610604565b91505092915050565b61067881610969565b82525050565b6000610689826108f7565b6106938185610902565b93506106a38185602086016109b4565b6106ac81610aa6565b840191505092915050565b600081546106c4816109e7565b6106ce8186610902565b945060018216600081146106e957600181146106fb5761072e565b60ff198316865260208601935061072e565b610704856108e2565b60005b8381101561072657815481890152600182019150602081019050610707565b808801955050505b50505092915050565b6107408161099b565b82525050565b600060408201905061075b600083018561066f565b6107686020830184610737565b9392505050565b60006020820190508181036000830152610789818461067e565b905092915050565b600060408201905081810360008301526107ab818561067e565b905081810360208301526107bf818461067e565b90509392505050565b600060608201905081810360008301526107e2818661067e565b905081810360208301526107f6818561067e565b9050818103604083015261080a818461067e565b9050949350505050565b6000604082019050818103600083015261082e818561067e565b905061083d6020830184610737565b9392505050565b6000602082019050818103600083015261085e81846106b7565b905092915050565b600060208201905061087b6000830184610737565b92915050565b6000604051905081810181811067ffffffffffffffff821117156108a8576108a7610a77565b5b8060405250919050565b600067ffffffffffffffff8211156108cd576108cc610a77565b5b601f19601f8301169050602081019050919050565b60008190508160005260206000209050919050565b600081519050919050565b600082825260208201905092915050565b600061091e8261099b565b91506109298361099b565b9250827fffffffffffffffffffffffffffffffffffffffffffffffffffffffffffffffff0382111561095e5761095d610a19565b5b828201905092915050565b60006109748261097b565b9050919050565b600073ffffffffffffffffffffffffffffffffffffffff82169050919050565b6000819050919050565b82818337600083830152505050565b60005b838110156109d25780820151818401526020810190506109b7565b838111156109e1576000848401525b50505050565b600060028204905060018216806109ff57607f821691505b60208210811415610a1357610a12610a48565b5b50919050565b7f4e487b7100000000000000000000000000000000000000000000000000000000600052601160045260246000fd5b7f4e487b7100000000000000000000000000000000000000000000000000000000600052602260045260246000fd5b7f4e487b7100000000000000000000000000000000000000000000000000000000600052604160045260246000fd5b6000601f19601f830116905091905056fe4368616e67696e67206772656574696e672066726f6d202725732720746f2027257327506179696e6720636f6e747261637420272573272066726f6d2061646472657373a264697066735822122013f612edcedd893f68b40437827217daf3f6f59719286db4ca86586165388a3e64736f6c634300080000334465706c6f79696e67206120477265657465722077697468206772656574696e673a",
  "immutableReferences": {},
  "source": "//SPDX-License-Identifier: Unlicense\npragma solidity ^0.8.0;\n\nimport \"hardhat/console.sol\";\n\n\ncontract Greeter {\n  string greeting;\n  uint public amount;\n  uint amountSent;\n  event ValueSet(string _greeting);\n  event ValueReceived(address user, uint amount);\n\n  constructor(string memory _greeting) {\n    console.log(\"Deploying a Greeter with greeting:\", _greeting);\n    greeting = _greeting;\n    amount = 0;\n  }\n\n  function greet() public view returns (string memory) {\n    return greeting;\n  }\n\n  function setGreeting(string memory _greeting) public {\n    console.log(\"Changing greeting from '%s' to '%s'\", greeting, _greeting);\n    greeting = _greeting;\n    emit ValueSet(greeting);\n  }\n\n  function payGreeter() payable public {\n    console.log(\"Paying contract '%s' from address\", msg.value);\n    amountSent = msg.value;\n    amount += amountSent;\n    emit ValueReceived(msg.sender, msg.value);\n  }\n\n  function getBalance() public view returns (uint) {\n    return amount;\n  }\n\n}\n",
  "sourcePath": "/Users/oliver.flynn/penrose-lotto/contracts/Greeter.sol",
  "compiler": {
    "name": "solc",
    "version": "0.8.0+commit.c7dfd78e.Emscripten.clang"
  },
  "schemaVersion": "3.4.2",
  "updatedAt": "2021-10-01T13:46:33.598Z",
  "devdoc": {
    "kind": "dev",
    "methods": {},
    "version": 1
  },
  "userdoc": {
    "kind": "user",
    "methods": {},
    "version": 1
  }
}