{
  "contractName": "PenroseToken",
  "abi": [
    {
      "inputs": [
        {
          "internalType": "uint256",
          "name": "initialSupply",
          "type": "uint256"
        }
      ],
      "stateMutability": "nonpayable",
      "type": "constructor"
    },
    {
      "anonymous": false,
      "inputs": [
        {
          "indexed": true,
          "internalType": "address",
          "name": "owner",
          "type": "address"
        },
        {
          "indexed": true,
          "internalType": "address",
          "name": "spender",
          "type": "address"
        },
        {
          "indexed": false,
          "internalType": "uint256",
          "name": "value",
          "type": "uint256"
        }
      ],
      "name": "Approval",
      "type": "event"
    },
    {
      "anonymous": false,
      "inputs": [
        {
          "indexed": true,
          "internalType": "address",
          "name": "from",
          "type": "address"
        },
        {
          "indexed": true,
          "internalType": "address",
          "name": "to",
          "type": "address"
        },
        {
          "indexed": false,
          "internalType": "uint256",
          "name": "value",
          "type": "uint256"
        }
      ],
      "name": "Transfer",
      "type": "event"
    },
    {
      "anonymous": false,
      "inputs": [
        {
          "indexed": false,
          "internalType": "address",
          "name": "user",
          "type": "address"
        },
        {
          "indexed": false,
          "internalType": "uint256",
          "name": "amount",
          "type": "uint256"
        }
      ],
      "name": "ValueReceived",
      "type": "event"
    },
    {
      "inputs": [
        {
          "internalType": "address",
          "name": "owner",
          "type": "address"
        },
        {
          "internalType": "address",
          "name": "spender",
          "type": "address"
        }
      ],
      "name": "allowance",
      "outputs": [
        {
          "internalType": "uint256",
          "name": "",
          "type": "uint256"
        }
      ],
      "stateMutability": "view",
      "type": "function",
      "constant": true
    },
    {
      "inputs": [
        {
          "internalType": "address",
          "name": "spender",
          "type": "address"
        },
        {
          "internalType": "uint256",
          "name": "amount",
          "type": "uint256"
        }
      ],
      "name": "approve",
      "outputs": [
        {
          "internalType": "bool",
          "name": "",
          "type": "bool"
        }
      ],
      "stateMutability": "nonpayable",
      "type": "function"
    },
    {
      "inputs": [
        {
          "internalType": "address",
          "name": "account",
          "type": "address"
        }
      ],
      "name": "balanceOf",
      "outputs": [
        {
          "internalType": "uint256",
          "name": "",
          "type": "uint256"
        }
      ],
      "stateMutability": "view",
      "type": "function",
      "constant": true
    },
    {
      "inputs": [],
      "name": "decimals",
      "outputs": [
        {
          "internalType": "uint8",
          "name": "",
          "type": "uint8"
        }
      ],
      "stateMutability": "view",
      "type": "function",
      "constant": true
    },
    {
      "inputs": [
        {
          "internalType": "address",
          "name": "spender",
          "type": "address"
        },
        {
          "internalType": "uint256",
          "name": "subtractedValue",
          "type": "uint256"
        }
      ],
      "name": "decreaseAllowance",
      "outputs": [
        {
          "internalType": "bool",
          "name": "",
          "type": "bool"
        }
      ],
      "stateMutability": "nonpayable",
      "type": "function"
    },
    {
      "inputs": [
        {
          "internalType": "address",
          "name": "spender",
          "type": "address"
        },
        {
          "internalType": "uint256",
          "name": "addedValue",
          "type": "uint256"
        }
      ],
      "name": "increaseAllowance",
      "outputs": [
        {
          "internalType": "bool",
          "name": "",
          "type": "bool"
        }
      ],
      "stateMutability": "nonpayable",
      "type": "function"
    },
    {
      "inputs": [],
      "name": "name",
      "outputs": [
        {
          "internalType": "string",
          "name": "",
          "type": "string"
        }
      ],
      "stateMutability": "view",
      "type": "function",
      "constant": true
    },
    {
      "inputs": [],
      "name": "symbol",
      "outputs": [
        {
          "internalType": "string",
          "name": "",
          "type": "string"
        }
      ],
      "stateMutability": "view",
      "type": "function",
      "constant": true
    },
    {
      "inputs": [],
      "name": "totalSupply",
      "outputs": [
        {
          "internalType": "uint256",
          "name": "",
          "type": "uint256"
        }
      ],
      "stateMutability": "view",
      "type": "function",
      "constant": true
    },
    {
      "inputs": [
        {
          "internalType": "address",
          "name": "recipient",
          "type": "address"
        },
        {
          "internalType": "uint256",
          "name": "amount",
          "type": "uint256"
        }
      ],
      "name": "transfer",
      "outputs": [
        {
          "internalType": "bool",
          "name": "",
          "type": "bool"
        }
      ],
      "stateMutability": "nonpayable",
      "type": "function"
    },
    {
      "inputs": [
        {
          "internalType": "address",
          "name": "sender",
          "type": "address"
        },
        {
          "internalType": "address",
          "name": "recipient",
          "type": "address"
        },
        {
          "internalType": "uint256",
          "name": "amount",
          "type": "uint256"
        }
      ],
      "name": "transferFrom",
      "outputs": [
        {
          "internalType": "bool",
          "name": "",
          "type": "bool"
        }
      ],
      "stateMutability": "nonpayable",
      "type": "function"
    },
    {
      "inputs": [],
      "name": "getSupply",
      "outputs": [
        {
          "internalType": "uint256",
          "name": "",
          "type": "uint256"
        }
      ],
      "stateMutability": "view",
      "type": "function",
      "constant": true
    },
    {
      "inputs": [
        {
          "internalType": "address",
          "name": "_address",
          "type": "address"
        }
      ],
      "name": "getERCBalance",
      "outputs": [
        {
          "internalType": "uint256",
          "name": "",
          "type": "uint256"
        }
      ],
      "stateMutability": "view",
      "type": "function",
      "constant": true
    },
    {
      "inputs": [
        {
          "internalType": "uint256",
          "name": "numberTokens",
          "type": "uint256"
        }
      ],
      "name": "buyToken",
      "outputs": [],
      "stateMutability": "payable",
      "type": "function",
      "payable": true
    }
  ],
  "bytecode": "0x60806040523480156200001157600080fd5b5060405162001c4c38038062001c4c833981810160405281019062000037919062000362565b6040518060400160405280600781526020017f50656e726f7365000000000000000000000000000000000000000000000000008152506040518060400160405280600381526020017f504e5200000000000000000000000000000000000000000000000000000000008152508160039080519060200190620000bb9291906200029b565b508060049080519060200190620000d49291906200029b565b5050506200010833620000ec6200010f60201b60201c565b60ff1683620000fc9190620004e9565b6200011860201b60201c565b50620006eb565b60006012905090565b600073ffffffffffffffffffffffffffffffffffffffff168273ffffffffffffffffffffffffffffffffffffffff1614156200018b576040517f08c379a00000000000000000000000000000000000000000000000000000000081526004016200018290620003e1565b60405180910390fd5b6200019f600083836200029160201b60201c565b8060026000828254620001b3919062000431565b92505081905550806000808473ffffffffffffffffffffffffffffffffffffffff1673ffffffffffffffffffffffffffffffffffffffff16815260200190815260200160002060008282546200020a919062000431565b925050819055508173ffffffffffffffffffffffffffffffffffffffff16600073ffffffffffffffffffffffffffffffffffffffff167fddf252ad1be2c89b69c2b068fc378daa952ba7f163c4a11628f55a4df523b3ef8360405162000271919062000403565b60405180910390a36200028d600083836200029660201b60201c565b5050565b505050565b505050565b828054620002a99062000630565b90600052602060002090601f016020900481019282620002cd576000855562000319565b82601f10620002e857805160ff191683800117855562000319565b8280016001018555821562000319579182015b8281111562000318578251825591602001919060010190620002fb565b5b5090506200032891906200032c565b5090565b5b80821115620003475760008160009055506001016200032d565b5090565b6000815190506200035c81620006d1565b92915050565b6000602082840312156200037557600080fd5b600062000385848285016200034b565b91505092915050565b60006200039d601f8362000420565b91507f45524332303a206d696e7420746f20746865207a65726f2061646472657373006000830152602082019050919050565b620003db8162000626565b82525050565b60006020820190508181036000830152620003fc816200038e565b9050919050565b60006020820190506200041a6000830184620003d0565b92915050565b600082825260208201905092915050565b60006200043e8262000626565b91506200044b8362000626565b9250827fffffffffffffffffffffffffffffffffffffffffffffffffffffffffffffffff0382111562000483576200048262000666565b5b828201905092915050565b6000808291508390505b6001851115620004e057808604811115620004b857620004b762000666565b5b6001851615620004c85780820291505b8081029050620004d885620006c4565b945062000498565b94509492505050565b6000620004f68262000626565b9150620005038362000626565b9250620005327fffffffffffffffffffffffffffffffffffffffffffffffffffffffffffffffff84846200053a565b905092915050565b6000826200054c57600190506200061f565b816200055c57600090506200061f565b81600181146200057557600281146200058057620005b6565b60019150506200061f565b60ff84111562000595576200059462000666565b5b8360020a915084821115620005af57620005ae62000666565b5b506200061f565b5060208310610133831016604e8410600b8410161715620005f05782820a905083811115620005ea57620005e962000666565b5b6200061f565b620005ff84848460016200048e565b9250905081840481111562000619576200061862000666565b5b81810290505b9392505050565b6000819050919050565b600060028204905060018216806200064957607f821691505b6020821081141562000660576200065f62000695565b5b50919050565b7f4e487b7100000000000000000000000000000000000000000000000000000000600052601160045260246000fd5b7f4e487b7100000000000000000000000000000000000000000000000000000000600052602260045260246000fd5b60008160011c9050919050565b620006dc8162000626565b8114620006e857600080fd5b50565b61155180620006fb6000396000f3fe6080604052600436106100dd5760003560e01c80636c9c2faf1161007f57806395d89b411161005957806395d89b41146102db578063a457c2d714610306578063a9059cbb14610343578063dd62ed3e14610380576100dd565b80636c9c2faf1461023657806370a08231146102615780638fbb38131461029e576100dd565b806323b872dd116100bb57806323b872dd146101755780632d296bf1146101b2578063313ce567146101ce57806339509351146101f9576100dd565b806306fdde03146100e2578063095ea7b31461010d57806318160ddd1461014a575b600080fd5b3480156100ee57600080fd5b506100f76103bd565b604051610104919061121a565b60405180910390f35b34801561011957600080fd5b50610134600480360381019061012f9190610e32565b61044f565b60405161014191906111ff565b60405180910390f35b34801561015657600080fd5b5061015f61046d565b60405161016c919061131c565b60405180910390f35b34801561018157600080fd5b5061019c60048036038101906101979190610de3565b610477565b6040516101a991906111ff565b60405180910390f35b6101cc60048036038101906101c79190610e6e565b61056f565b005b3480156101da57600080fd5b506101e36105b6565b6040516101f09190611337565b60405180910390f35b34801561020557600080fd5b50610220600480360381019061021b9190610e32565b6105bf565b60405161022d91906111ff565b60405180910390f35b34801561024257600080fd5b5061024b61066b565b604051610258919061131c565b60405180910390f35b34801561026d57600080fd5b5061028860048036038101906102839190610d7e565b61067a565b604051610295919061131c565b60405180910390f35b3480156102aa57600080fd5b506102c560048036038101906102c09190610d7e565b6106c2565b6040516102d2919061131c565b60405180910390f35b3480156102e757600080fd5b506102f06106d4565b6040516102fd919061121a565b60405180910390f35b34801561031257600080fd5b5061032d60048036038101906103289190610e32565b610766565b60405161033a91906111ff565b60405180910390f35b34801561034f57600080fd5b5061036a60048036038101906103659190610e32565b610851565b60405161037791906111ff565b60405180910390f35b34801561038c57600080fd5b506103a760048036038101906103a29190610da7565b61086f565b6040516103b4919061131c565b60405180910390f35b6060600380546103cc9061144c565b80601f01602080910402602001604051908101604052809291908181526020018280546103f89061144c565b80156104455780601f1061041a57610100808354040283529160200191610445565b820191906000526020600020905b81548152906001019060200180831161042857829003601f168201915b5050505050905090565b600061046361045c6108f6565b84846108fe565b6001905092915050565b6000600254905090565b6000610484848484610ac9565b6000600160008673ffffffffffffffffffffffffffffffffffffffff1673ffffffffffffffffffffffffffffffffffffffff16815260200190815260200160002060006104cf6108f6565b73ffffffffffffffffffffffffffffffffffffffff1673ffffffffffffffffffffffffffffffffffffffff1681526020019081526020016000205490508281101561054f576040517f08c379a00000000000000000000000000000000000000000000000000000000081526004016105469061129c565b60405180910390fd5b6105638561055b6108f6565b8584036108fe565b60019150509392505050565b6105793382610851565b507f7e71433ddf847725166244795048ecf3e3f9f35628254ecbf73605666423349333346040516105ab9291906111d6565b60405180910390a150565b60006012905090565b60006106616105cc6108f6565b8484600160006105da6108f6565b73ffffffffffffffffffffffffffffffffffffffff1673ffffffffffffffffffffffffffffffffffffffff16815260200190815260200160002060008873ffffffffffffffffffffffffffffffffffffffff1673ffffffffffffffffffffffffffffffffffffffff1681526020019081526020016000205461065c919061136e565b6108fe565b6001905092915050565b600061067561046d565b905090565b60008060008373ffffffffffffffffffffffffffffffffffffffff1673ffffffffffffffffffffffffffffffffffffffff168152602001908152602001600020549050919050565b60006106cd8261067a565b9050919050565b6060600480546106e39061144c565b80601f016020809104026020016040519081016040528092919081815260200182805461070f9061144c565b801561075c5780601f106107315761010080835404028352916020019161075c565b820191906000526020600020905b81548152906001019060200180831161073f57829003601f168201915b5050505050905090565b600080600160006107756108f6565b73ffffffffffffffffffffffffffffffffffffffff1673ffffffffffffffffffffffffffffffffffffffff16815260200190815260200160002060008573ffffffffffffffffffffffffffffffffffffffff1673ffffffffffffffffffffffffffffffffffffffff16815260200190815260200160002054905082811015610832576040517f08c379a0000000000000000000000000000000000000000000000000000000008152600401610829906112fc565b60405180910390fd5b61084661083d6108f6565b858584036108fe565b600191505092915050565b600061086561085e6108f6565b8484610ac9565b6001905092915050565b6000600160008473ffffffffffffffffffffffffffffffffffffffff1673ffffffffffffffffffffffffffffffffffffffff16815260200190815260200160002060008373ffffffffffffffffffffffffffffffffffffffff1673ffffffffffffffffffffffffffffffffffffffff16815260200190815260200160002054905092915050565b600033905090565b600073ffffffffffffffffffffffffffffffffffffffff168373ffffffffffffffffffffffffffffffffffffffff16141561096e576040517f08c379a0000000000000000000000000000000000000000000000000000000008152600401610965906112dc565b60405180910390fd5b600073ffffffffffffffffffffffffffffffffffffffff168273ffffffffffffffffffffffffffffffffffffffff1614156109de576040517f08c379a00000000000000000000000000000000000000000000000000000000081526004016109d59061125c565b60405180910390fd5b80600160008573ffffffffffffffffffffffffffffffffffffffff1673ffffffffffffffffffffffffffffffffffffffff16815260200190815260200160002060008473ffffffffffffffffffffffffffffffffffffffff1673ffffffffffffffffffffffffffffffffffffffff168152602001908152602001600020819055508173ffffffffffffffffffffffffffffffffffffffff168373ffffffffffffffffffffffffffffffffffffffff167f8c5be1e5ebec7d5bd14f71427d1e84f3dd0314c0f7b2291e5b200ac8c7c3b92583604051610abc919061131c565b60405180910390a3505050565b600073ffffffffffffffffffffffffffffffffffffffff168373ffffffffffffffffffffffffffffffffffffffff161415610b39576040517f08c379a0000000000000000000000000000000000000000000000000000000008152600401610b30906112bc565b60405180910390fd5b600073ffffffffffffffffffffffffffffffffffffffff168273ffffffffffffffffffffffffffffffffffffffff161415610ba9576040517f08c379a0000000000000000000000000000000000000000000000000000000008152600401610ba09061123c565b60405180910390fd5b610bb4838383610d4a565b60008060008573ffffffffffffffffffffffffffffffffffffffff1673ffffffffffffffffffffffffffffffffffffffff16815260200190815260200160002054905081811015610c3a576040517f08c379a0000000000000000000000000000000000000000000000000000000008152600401610c319061127c565b60405180910390fd5b8181036000808673ffffffffffffffffffffffffffffffffffffffff1673ffffffffffffffffffffffffffffffffffffffff16815260200190815260200160002081905550816000808573ffffffffffffffffffffffffffffffffffffffff1673ffffffffffffffffffffffffffffffffffffffff1681526020019081526020016000206000828254610ccd919061136e565b925050819055508273ffffffffffffffffffffffffffffffffffffffff168473ffffffffffffffffffffffffffffffffffffffff167fddf252ad1be2c89b69c2b068fc378daa952ba7f163c4a11628f55a4df523b3ef84604051610d31919061131c565b60405180910390a3610d44848484610d4f565b50505050565b505050565b505050565b600081359050610d63816114ed565b92915050565b600081359050610d7881611504565b92915050565b600060208284031215610d9057600080fd5b6000610d9e84828501610d54565b91505092915050565b60008060408385031215610dba57600080fd5b6000610dc885828601610d54565b9250506020610dd985828601610d54565b9150509250929050565b600080600060608486031215610df857600080fd5b6000610e0686828701610d54565b9350506020610e1786828701610d54565b9250506040610e2886828701610d69565b9150509250925092565b60008060408385031215610e4557600080fd5b6000610e5385828601610d54565b9250506020610e6485828601610d69565b9150509250929050565b600060208284031215610e8057600080fd5b6000610e8e84828501610d69565b91505092915050565b610ea0816113c4565b82525050565b610eaf816113d6565b82525050565b6000610ec082611352565b610eca818561135d565b9350610eda818560208601611419565b610ee3816114dc565b840191505092915050565b6000610efb60238361135d565b91507f45524332303a207472616e7366657220746f20746865207a65726f206164647260008301527f65737300000000000000000000000000000000000000000000000000000000006020830152604082019050919050565b6000610f6160228361135d565b91507f45524332303a20617070726f766520746f20746865207a65726f20616464726560008301527f73730000000000000000000000000000000000000000000000000000000000006020830152604082019050919050565b6000610fc760268361135d565b91507f45524332303a207472616e7366657220616d6f756e742065786365656473206260008301527f616c616e636500000000000000000000000000000000000000000000000000006020830152604082019050919050565b600061102d60288361135d565b91507f45524332303a207472616e7366657220616d6f756e742065786365656473206160008301527f6c6c6f77616e63650000000000000000000000000000000000000000000000006020830152604082019050919050565b600061109360258361135d565b91507f45524332303a207472616e736665722066726f6d20746865207a65726f20616460008301527f64726573730000000000000000000000000000000000000000000000000000006020830152604082019050919050565b60006110f960248361135d565b91507f45524332303a20617070726f76652066726f6d20746865207a65726f2061646460008301527f72657373000000000000000000000000000000000000000000000000000000006020830152604082019050919050565b600061115f60258361135d565b91507f45524332303a2064656372656173656420616c6c6f77616e63652062656c6f7760008301527f207a65726f0000000000000000000000000000000000000000000000000000006020830152604082019050919050565b6111c181611402565b82525050565b6111d08161140c565b82525050565b60006040820190506111eb6000830185610e97565b6111f860208301846111b8565b9392505050565b60006020820190506112146000830184610ea6565b92915050565b600060208201905081810360008301526112348184610eb5565b905092915050565b6000602082019050818103600083015261125581610eee565b9050919050565b6000602082019050818103600083015261127581610f54565b9050919050565b6000602082019050818103600083015261129581610fba565b9050919050565b600060208201905081810360008301526112b581611020565b9050919050565b600060208201905081810360008301526112d581611086565b9050919050565b600060208201905081810360008301526112f5816110ec565b9050919050565b6000602082019050818103600083015261131581611152565b9050919050565b600060208201905061133160008301846111b8565b92915050565b600060208201905061134c60008301846111c7565b92915050565b600081519050919050565b600082825260208201905092915050565b600061137982611402565b915061138483611402565b9250827fffffffffffffffffffffffffffffffffffffffffffffffffffffffffffffffff038211156113b9576113b861147e565b5b828201905092915050565b60006113cf826113e2565b9050919050565b60008115159050919050565b600073ffffffffffffffffffffffffffffffffffffffff82169050919050565b6000819050919050565b600060ff82169050919050565b60005b8381101561143757808201518184015260208101905061141c565b83811115611446576000848401525b50505050565b6000600282049050600182168061146457607f821691505b60208210811415611478576114776114ad565b5b50919050565b7f4e487b7100000000000000000000000000000000000000000000000000000000600052601160045260246000fd5b7f4e487b7100000000000000000000000000000000000000000000000000000000600052602260045260246000fd5b6000601f19601f8301169050919050565b6114f6816113c4565b811461150157600080fd5b50565b61150d81611402565b811461151857600080fd5b5056fea2646970667358221220823c812db185f24b65964f516c318b4f797c1d950b02bf8619e4e1a48b2ff03c64736f6c63430008000033",
  "immutableReferences": {},
  "source": "pragma solidity ^0.8.0;\nimport \"@openzeppelin/contracts/token/ERC20/ERC20.sol\";\n\ncontract PenroseToken is ERC20 {\n\n    event ValueReceived(address user, uint amount);\n\n    constructor(uint initialSupply) ERC20(\"Penrose\", \"PNR\") public {\n        _mint(msg.sender, initialSupply ** uint256(decimals()));\n    }\n\n    function getSupply() public view returns(uint) {\n        return super.totalSupply();\n    }\n\n    function getERCBalance(address _address) public view returns(uint) {\n        return super.balanceOf(_address);\n    }\n\n    function buyToken(uint numberTokens) payable public {\n        super.transfer(msg.sender, numberTokens);\n        emit ValueReceived(msg.sender, msg.value);\n    }\n}\n\n\n//TODO and useful commands\n//instance2.totalSupply().then(result => result.toString()) to convert BN to readable number\n//instance2.balanceOf(payerAddress) to get balance of payerAddress\n//web3.eth.getBalance(instance2.address) to get balance of contractAddress\n//const inst = await PenroseToken.new(123)\n//instToken.transfer(receiverAddress, 99)\n\n//     const payment1 = await instToken.buyToken(1, {to: web3.utils.toChecksumAddress(instToken.address), from: web3.utils.toChecksumAddress('0x6bce403cd96ee6118ec49892c4d8a179727b5816'), value: web3.utils.toWei(\"1\", \"ether\")})\n\n//truffle exec scripts/query.js --network development",
  "sourcePath": "/Users/oliver.flynn/penrose-lotto/contracts/PenroseToken.sol",
  "compiler": {
    "name": "solc",
    "version": "0.8.0+commit.c7dfd78e.Emscripten.clang"
  },
  "schemaVersion": "3.4.2",
  "updatedAt": "2021-11-01T11:46:20.721Z",
  "networkType": "ethereum",
  "devdoc": {
    "kind": "dev",
    "methods": {
      "allowance(address,address)": {
        "details": "See {IERC20-allowance}."
      },
      "approve(address,uint256)": {
        "details": "See {IERC20-approve}. Requirements: - `spender` cannot be the zero address."
      },
      "balanceOf(address)": {
        "details": "See {IERC20-balanceOf}."
      },
      "decimals()": {
        "details": "Returns the number of decimals used to get its user representation. For example, if `decimals` equals `2`, a balance of `505` tokens should be displayed to a user as `5,05` (`505 / 10 ** 2`). Tokens usually opt for a value of 18, imitating the relationship between Ether and Wei. This is the value {ERC20} uses, unless this function is overridden; NOTE: This information is only used for _display_ purposes: it in no way affects any of the arithmetic of the contract, including {IERC20-balanceOf} and {IERC20-transfer}."
      },
      "decreaseAllowance(address,uint256)": {
        "details": "Atomically decreases the allowance granted to `spender` by the caller. This is an alternative to {approve} that can be used as a mitigation for problems described in {IERC20-approve}. Emits an {Approval} event indicating the updated allowance. Requirements: - `spender` cannot be the zero address. - `spender` must have allowance for the caller of at least `subtractedValue`."
      },
      "increaseAllowance(address,uint256)": {
        "details": "Atomically increases the allowance granted to `spender` by the caller. This is an alternative to {approve} that can be used as a mitigation for problems described in {IERC20-approve}. Emits an {Approval} event indicating the updated allowance. Requirements: - `spender` cannot be the zero address."
      },
      "name()": {
        "details": "Returns the name of the token."
      },
      "symbol()": {
        "details": "Returns the symbol of the token, usually a shorter version of the name."
      },
      "totalSupply()": {
        "details": "See {IERC20-totalSupply}."
      },
      "transfer(address,uint256)": {
        "details": "See {IERC20-transfer}. Requirements: - `recipient` cannot be the zero address. - the caller must have a balance of at least `amount`."
      },
      "transferFrom(address,address,uint256)": {
        "details": "See {IERC20-transferFrom}. Emits an {Approval} event indicating the updated allowance. This is not required by the EIP. See the note at the beginning of {ERC20}. Requirements: - `sender` and `recipient` cannot be the zero address. - `sender` must have a balance of at least `amount`. - the caller must have allowance for ``sender``'s tokens of at least `amount`."
      }
    },
    "version": 1
  },
  "userdoc": {
    "kind": "user",
    "methods": {},
    "version": 1
  }
}